:100000000C94F4000C9435040C9413010C948D059D
:100010000C9423010C9413010C9413010C94CB1C2D
:100020000C942D010C9413010C9413010C941301E6
:100030000C9413010C9413010C9413010C941301F0
:100040000C9413010C9413010C9413010C941301E0
:100050000C9413010C9413010C9413010C941301D0
:100060000C9413010C9413010C9413010C941301C0
:100070000C9413010C9413010C9413010C941301B0
:100080000C9413010C9413010C9413011C07100819
:10009000DC09F510B21CFA10631163116311E3114E
:1000A000E311EA117212CF153E199A1AB71AD81A2B
:1000B000ED1A571BC810B90FBC0FC50FC80FD10FD1
:1000C000D40FDD0FE60FE90FEC0FF50FFE0F071051
:1000D00010101310B010B9101C10C810C810C810A0
:1000E000381041104A104D1056105F1068107110F2
:1000F0007A107D10861089109210A110B010B910DE
:10010000C823BC248C26A52D9A23AA2D132E132E8A
:10011000132E932E932E9A2E222F873207366A376C
:100120008837AA37C0372C38782D692C6C2C752C61
:10013000782C812C842C8D2C962C992C9C2CA52CE5
:10014000AE2CB72CC02CC32C602D692DCC2C782D57
:10015000782D782DE82CF12CFA2CFD2C062D0F2D66
:10016000182D212D2A2D2D2D362D392D422D512D95
:10017000602D692DE939DA3AA63CB943B239BE435C
:100180002244224422449B449B44A2442A459C4747
:10019000374B974CB24CCE4CE14C4D4D8E437F4289
:1001A00082428B428E4297429A42A342AC42AF4275
:1001B000B242BB42C442CD42D642D94276437F438B
:1001C000E2428E438E438E43FE4207431043134365
:1001D0001C4325432E433743404343434C434F4343
:1001E0005843674376437F4311241FBECFEFD0E1CE
:1001F000DEBFCDBF11E0A0E0B1E0EEE1F3EA00E048
:100200000BBF02C007900D92A234B107D9F717E0D7
:10021000A2E4B1E001C01D92AB36B107E1F70E9444
:1002200008220C948E510C94000080911E011092B3
:100230001F0110921E0199270895992790931F017D
:1002400080931E0108951F920F920FB60F921124F2
:100250000F900FBE0F901F9018951F920F920FB620
:100260000F9211242F933F934F935F936F937F933C
:100270008F939F93AF93BF93CF93DF93EF93FF93AE
:1002800080917E2290917F22282F2F7080910C01E7
:1002900090910D018F7E907090930D0180930C01D1
:1002A000273009F031C280914701813009F4CAC278
:1002B00080EE90E090939F2280939E2250915E0169
:1002C000552359F4409100248091022490910324F5
:1002D00020910124309102240AC040918024809111
:1002E0008224909183242091812430918224782F3C
:1002F0006627622B732B842F8550853208F0FDC151
:1003000088E86136780741F098E86134790721F090
:100310006230710509F0F1C12091582130915921C5
:10032000552309F04BC08091042490910524821735
:10033000930709F0E2C120910524309106248091B1
:10034000592190915A212817390709F0D6C12091D7
:100350000624309107242F3F310539F4809107247A
:10036000909108248F3F9105A1F080915A2190919E
:100370005B212817390709F0C0C12091072430916B
:10038000082480915B2190915C212817390709F09E
:10039000B4C155274150504060E074E28091990605
:1003A00090919A060E94855180E890E09093822077
:1003B0008093812081E080935E0147C080918424F6
:1003C000909185248217930709F097C12091852485
:1003D000309186248091592190915A21281739070C
:1003E00009F08BC120918624309187242F3F31055D
:1003F00039F480918724909188248F3F9105A1F052
:1004000080915A2190915B212817390709F075C115
:10041000209187243091882480915B2190915C21E8
:100420002817390709F069C155274150504060E845
:1004300074E28091990690919A060E9485511092DB
:1004400082201092812010925E01E0919906F09135
:100450009A06918197708FEF80AB87A7923009F051
:100460006BC0C0919906D0919A06A0916607B09191
:100470006707488180911C0790911D07049709F038
:10048000E1C1FD0193818B81981709F0DBC12091B7
:100490001E0130911F0180915B078F3F99F480917D
:1004A00068078A3009F0ABC10DC08AE0809350071D
:1004B00007C0E0916807FF27EF5AF84F8AE0808372
:1004C000809368079A96822F992790931F018093B3
:1004D0001E0181E0FD018483FE01E40FF11D829184
:1004E0003196ED01898380818F778A8381E090E066
:1004F00090931D0780931C071092440120911E01C8
:1005000030911F01809156078F3F99F480916807C1
:10051000853009F07AC10DC085E08093500707C08F
:10052000E0916807FF27EF5AF84F85E080838093BA
:100530006807822F9927C5C0913009F083C1818156
:1005400085FFADC0E0919906F0919A0680911C0755
:1005500090911D07019709F0A2C0A0911C01B091D4
:100560001D0110921D0110921C0140910C0150912F
:100570000D014F7E507050930D0140930C0160911E
:100580000022709101226460709301226093002226
:100590008091CC229091CD228C7F9070836090933B
:1005A000CD228093CC2289E090E090930123809328
:1005B000002382E090E09093022380930123109225
:1005C000032310920223838199279093042380931D
:1005D0000323258184819927909305238093042305
:1005E000332730930623209305232185808599277F
:1005F0009093072380930623332730930823209377
:1006000007238091702290917122807719F08031B8
:1006100009F03FC010920320109202206B7F70708F
:10062000709301226093002220E030E080917E22CE
:1006300090917F228F708F3021F04F7E50708D30DF
:1006400021F1E3E0273E3E0739F02F5F3F4FF3E013
:10065000283E3F0781F719C050930D0140930C01CC
:1006600080910022909101228460909301228093D6
:1006700000228091CC229091CD228C7F907083605B
:100680009093CD228093CC2204C050930D014093CF
:100690000C018A2F992790931D0180931C01809152
:1006A0001E0110921F0110921E01982F80915C076D
:1006B0008F3F29F4809168078B3009F0ACC0892FF7
:1006C000992790931F0180931E01BCC08BE08093FB
:1006D000500707C0E0916807FF27EF5AF84F8BE0FB
:1006E000808380936807892F992790931F018093B7
:1006F0001E0181E080934701A5C010925E01109217
:100700008220109281209EC02D3009F06FC0209170
:100710001E0130911F0180915A078F3F99F48091FB
:100720006807893009F07DC00DC089E080935007CB
:1007300007C0E0916807FF27EF5AF84F89E08083F0
:1007400080936807332730931F0120931E01809107
:1007500001239091022385FF1FC084E090E09093D5
:100760001D0780931C0785E395E0909379018093A2
:100770007801809159078F3FA1F5809168078830F3
:1007800009F055C02EC088E020C0E0916807FF271F
:10079000EF5AF84F88E022C080911C0790911D0706
:1007A000039709F04FC081E090E090931D0780937C
:1007B0001C0710924401809156078F3F91F480915D
:1007C00068078530D1F50DC085E08093500707C0DC
:1007D000E0916807FF27EF5AF84F85E08083809308
:1007E000680730931F0120931E012CC02B3051F558
:1007F0008DEE90E090939F2280939E2223C0809163
:1008000050078F3F09F055CE50CE809150078F3F53
:1008100009F086CE81CE809150078F3F09F05ACFE4
:1008200055CF809150078F3F09F083CF7ECF8091C5
:1008300050078F3F09F0A9CFA6CF809150078F3F77
:1008400039F6C2CFFF91EF91DF91CF91BF91AF9178
:100850009F918F917F916F915F914F913F912F91D8
:100860000F900FBE0F901F9018951F920F920FB60A
:100870000F9211246F927F928F929F92AF92BF92AC
:10088000CF92DF92EF92FF920F931F932F933F939C
:100890004F935F936F937F938F939F93AF93BF9388
:1008A000EF9380917301909174010196909374017C
:1008B00080937301209148013091490140914A0190
:1008C00050914B012F5F3F4F4F4F5F4F2093480197
:1008D0003093490140934A0150934B018091850622
:1008E000882309F4FEC0815080938506882309F08F
:1008F000F8C08091080190910901782F66278091B6
:10090000040190910501682B792B80910001909151
:10091000010185FF04C02F5F3F4F4F4F5F4F7901AB
:100920008A013FE0EE0CFF1C001F111F3A95D1F722
:10093000CB0196958795AA27BB27E82AF92A0A2B87
:100940001B2B2091810630918206409183065091A5
:10095000840657016801A21AB30AC40AD50A109284
:1009600085068091E4039091E503A091E603B091A0
:10097000E703A816B906CA06DB06C0F0280F391F20
:100980004A1F5B1F209381063093820640938306A3
:10099000509384061092E4031092E5031092E6034C
:1009A0001092E703AA24BB24650170C03C014D01ED
:1009B0006A187B088C089D0864015301E1E06E16FB
:1009C000E0E87E06E0E08E06E0E09E06B8F080E01B
:1009D000681680E0780680E8880680E0980620F0B7
:1009E0008FEF809385067DC01FE0D694C794B7949F
:1009F000A7941A95D1F7A092850673C0E1E06E1610
:100A0000E0E47E06E0E08E06E0E09E0658F1612C10
:100A1000B0E47B2E812C912CE60CF71C081D191DCF
:100A2000E0928106F092820600938306109384067A
:100A300080E090ECAFEFBFEFE80EF91E0A1F1B1F1E
:100A4000A80EB91ECA1EDB1EA092E403B092E503F5
:100A5000C092E603D092E703A12CA0E4BA2EC12CE9
:100A6000D12C14C0280F391F4A1F5B1F2093810609
:100A70003093820640938306509384061092E403D9
:100A80001092E5031092E6031092E7039701220FFC
:100A9000331FC501880F991F280F391FCB010296FC
:100AA0002817390718F482E090E003C0C901861BBB
:100AB000970B809590950197292F332730930B0141
:100AC00020930A0190709093070180930601109281
:100AD0002D0110922C0181E090E0909323018093EE
:100AE0002201EF91BF91AF919F918F917F916F9173
:100AF0005F914F913F912F911F910F91FF90EF9038
:100B0000DF90CF90BF90AF909F908F907F906F902D
:100B10000F900FBE0F901F9018951F920F920FB657
:100B20000F9211246F927F928F929F92AF92BF92F9
:100B3000CF92DF92EF92FF920F931F932F933F93E9
:100B40004F935F936F937F938F939F93AF93BF93D5
:100B5000EF93FF931092230110922201A090E403DF
:100B6000B090E503C090E603D090E703A114B10470
:100B7000C104D10411F520911E0130911F01809113
:100B80005D078F3F99F4809168078C3009F008C1A8
:100B90000DC08CE08093500707C0E0916807FF27E5
:100BA000EF5AF84F8CE0808380936807822F992753
:100BB00090931F0180931E01F9C02091480130914C
:100BC000490140914A0150914B0180910801909157
:100BD0000901782F66278091040190910501682B07
:100BE000792B809100019091010185FF04C02F5F56
:100BF0003F4F4F4F5F4F79018A015FE0EE0CFF1CC2
:100C0000001F111F5A95D1F7CB0196958795AA27FA
:100C1000BB27E82AF92A0A2B1B2B20918106309149
:100C200082064091830650918406D801C701821B39
:100C3000930BA40BB50B109285068A159B05AC058A
:100C4000BD05C8F02A0D3B1D4C1D5D1D209381067E
:100C50003093820640938306509384061092E403F7
:100C60001092E5031092E6031092E70380E090E013
:100C7000A0E0B0E06AC035014601681A790A8A0A24
:100C80009B0AD401C3018130E0E89E07E0E0AE0793
:100C9000E0E0BE07A0F0803020E0920720E8A20745
:100CA00020E0B20710F08FEF07C03FE0B695A795A0
:100CB000979587953A95D1F78093850677C08130CF
:100CC000E0E49E07E0E0AE07E0E0BE0750F1612CF3
:100CD00020E4722E812C912CE60CF71C081D191DA6
:100CE000E0928106F09282060093830610938406B8
:100CF00020E030EC4FEF5FEFE20EF31E041F151FF4
:100D000080509044A040B0408093E4039093E5036A
:100D1000A093E603B093E70380E090E4A0E0B0E0A6
:100D200014C02A0D3B1D4C1D5D1D20938106309380
:100D3000820640938306509384061092E403109237
:100D4000E5031092E6031092E7039701220F331F89
:100D5000880F991F280F391FCB01029628173907D2
:100D600018F482E090E003C0C901861B970B8095C0
:100D700090950197292F332730930B0120930A0177
:100D80009070909307018093060110922D011092AC
:100D90002C0181E090E0909323018093220106C012
:100DA000809150078F3F09F0F8CEF3CEFF91EF917D
:100DB000BF91AF919F918F917F916F915F914F9173
:100DC0003F912F911F910F91FF90EF90DF90CF9067
:100DD000BF90AF909F908F907F906F900F900FBEBD
:100DE0000F901F9018952F923F924F925F926F92A3
:100DF0007F928F929F92AF92BF92CF92DF92EF92AB
:100E0000FF920F931F93CF93DF93CDB7DEB7AD97CC
:100E10000FB6F894DEBF0FBECDBFE82FFF27E43139
:100E2000F10510F00C94B21CEA5BFF4FEE0FFF1FB0
:100E30000590F491E02D099480911E0110921F01FC
:100E400010921E01282F9091E80380919B0698171D
:100E500041F480911E07882321F4109265070C94B9
:100E6000541B822F992790931F0180931E01E091BC
:100E70009B06FF27EE0FFF1FEC5DF84F0190F081FE
:100E8000E02D80818D50482F5527642F40933C07DB
:100E900003857781168121853327322F222780858C
:100EA0009927282B392B85E0E82EF12CEE0EFF1E1A
:100EB00087E0D7011D928A95E9F72087232F3327F2
:100EC0002783F7011582E0919B06FF27EE0FFF1F96
:100ED000EC5DF84FA081B1814D3108F091C0872FB2
:100EE0009927982F8827212F3327822B932B9D0119
:100EF0002B5F3F4FF9018183892F9927FD0185835E
:100F0000F901068344838091510190915201892B0C
:100F100009F076C020911E0185E080935401109263
:100F20005501B0935001A0934F0182E090E090935F
:100F30005201809351011092570110925601645F43
:100F40006093530110921F0110921E01809145077A
:100F500033278A3029F430931F0120931E014CC09F
:100F600010921F0110921E0180919706882351F460
:100F700081E0809397061092980680911C04882344
:100F800041F02EC0822F992790931F0180931E015C
:100F900033C010921F0110921E0180915F078F3F96
:100FA00031F4809168078E3011F00C94EB1B109295
:100FB0001F0110921E0114C08EE08093500707C0DD
:100FC000E0916807FF27EF5AF84F8EE08083809307
:100FD000680710921F0110921E0181E080931C048B
:100FE00080912801909129018095909590932901F5
:100FF000809328010C94541B1092520110925101BD
:1010000020911E0130911F018091260190912701AE
:101010008095909590932701809326010C943C1B1A
:1010200080911E0110921F0110921E01282F909195
:101030009C0680917701981741F48091910688234E
:1010400021F410927B010C94541B822F99279093CA
:101050001F0180931E01E0917701FF27EE0FFF1F14
:10106000E256F94FE080F180D7011596FD016481C9
:10107000F70145815527542F4427FD018181992788
:10108000482B592BF70127813327322F22278085C0
:101090009927282B392BFD0186818701085F1F4F77
:1010A000F7012087232F3327F8012183F701838756
:1010B0004683452F5527478382E18483158290918B
:1010C0001E0110921F0110921E0180914501292FCF
:1010D0003327833029F030931F0120931E015DC117
:1010E000D7019A9685E080934501F0928C06E092B4
:1010F0008B0680915F018F5F80935F01F70183838F
:1011000030931F0120931E01635F61939F01F701DC
:1011100081819927807290708183892F9927F901A5
:101120008183F70181819927816498688183892F60
:101130009927F90181832091390130913A018091F9
:101140001E01992790931F0180931E01F7012087AC
:10115000232F3327F80121838FE3F7018287FD01D5
:10116000148211821282F70110AA17A6A0918B0691
:10117000B0918C0680911E0110921F0110921E01E9
:101180008B8380911C0790911D07019741F0FB8193
:101190008F2F992790931F0180931E01FEC0B0935B
:1011A0006707A09366074C91552741505040BD01F9
:1011B00080E093E20E948551809103239091042363
:1011C000909393218093922180917022909171222B
:1011D000807719F0803109F041C0109203201092FD
:1011E000022080910022909101228B7F9070909339
:1011F00001228093002283E090E090931D0780936A
:101200001C078BE99CE090937901809378012091F1
:101210001E0130911F0110921F0110921E0180913A
:1012200057078F3FA1F480916807863011F00C9426
:10123000F31B0DC086E08093500707C0E09168075C
:10124000FF27EF5AF84F86E0808380936807822F4C
:10125000992790931F0180931E0190C082E090E037
:1012600090931D0780931C0720911E0130911F0150
:101270003DA72CA710921F0110921E012090E003A1
:101280003090E1034090E2035090E303662477241A
:1012900088245EE4A52E43E8B42ECC24DD24EE247D
:1012A000FF2400E010E0222D332D442D552D662D16
:1012B000772D882D90E00E94874F2C833D834E83AD
:1012C0005F83688779878A879B87822E932EA42ED7
:1012D000B52E2401350100E20E948550A22EB32EC6
:1012E000C42ED52ED301C201B695A79597958795A3
:1012F0008A0D9B1DAC1DBD1DB7FF04C0BF770196B5
:10130000A11DB11D8093E0039093E103A093E2033C
:10131000B093E3033CA5432F55278F71907001963E
:1013200020EF30E0BC01629FC001639F900D729F6F
:10133000900D1124909379018093780110921F01F0
:1013400010921E01809158078F3FA1F48091680789
:10135000873011F00C94FB1B0DC087E08093500781
:1013600007C0E0916807FF27EF5AF84F87E08083B6
:101370008093680750931F0140931E0180912A01BA
:1013800090912B018095909590932B0180932A0149
:101390007B81872F99270C94E61B20911E013091A9
:1013A0001F0180912601909127018095909590933F
:1013B0002701809326016AC7E0901E01F0901F016B
:1013C00010921F0110921E0180919F229091A022E5
:1013D0008139910509F058C18FE790E0909314226C
:1013E000809313224FEF50E0509324224093232206
:1013F00081EE90E0909326228093252222EA30E02D
:10140000309329222093282289E690E090932B2282
:1014100080932A2230932C2220932B2287ED90E078
:101420009093322280933122909333228093322200
:101430008FEE90E0909334228093332287EF90E0F8
:1014400090933B2280933A2287E790E090933C224E
:1014500080933B2288E890E090933D2280933C2249
:101460008FE390E090933F2280933E22509363223B
:101470004093622210926E2210926D22109270227E
:1014800010926F228FED90E09093742280937322DC
:101490008EE990E090937A2280937922ECE6F0E056
:1014A000F0938A22E093892281E090E090938B224E
:1014B00080938A2222E230E030938C2220938B2288
:1014C00080E890E090938D2280938C2288EA90E0CF
:1014D00090938E2280938D228AE590E090938F22C4
:1014E00080938E228FE490E09093902280938F22BD
:1014F00062E170E0709391226093902280E590E029
:10150000909392228093912230939322209392225F
:1015100088E290E0909394228093932288EE90E06A
:1015200090939522809394228BE490E0909396225E
:101530008093952288EF90E090939A22809399224D
:1015400084E090E090939C2280939B228AE890E034
:1015500090939D2280939C2282E690E090939E221D
:1015600080939D2289EE90E090939F2280939E220B
:101570008FE990E09093A1228093A0225093A22221
:101580004093A1228FE690E09093A3228093A22221
:101590007093A5226093A42284E390E09093A82204
:1015A0008093A72280E390E09093AC228093AB22BB
:1015B0008FEB90E09093CD228093CC228DEF90E042
:1015C00090930D2280930C22509303224093022289
:1015D0005093042240930322509305224093042207
:1015E00050930622409305225093072240930622EF
:1015F000509308224093072284E890E090930222BF
:101600008093012283E090E0909399228093982226
:10161000F093B622E093B52289EC90E09093B1224A
:101620008093B02240911C0150911D0110921D0128
:1016300010921C0181EF90E09093782280937722A2
:1016400080910022909101228F73907090930122DB
:101650008093002220910C0130910D0180917E2217
:1016600090917F228F708F30F1F32F7E30708E300B
:10167000D1F730930D0120930C018EEF90E0909301
:1016800078228093772299C18DEF90E090930D227C
:1016900080930C2280EC90E0909341228093402232
:1016A0002FE730E030931422209313226FEF70E085
:1016B00070931E2260931D2202EC10E010932122F1
:1016C0000093202281E890E09093222280932122AF
:1016D00070932422609323228EED90E09093262233
:1016E0008093252289ED90E09093272280932622F3
:1016F00083E890E090932822809327228BE890E063
:101700009093292280932822A0EEB0E0B0932B2260
:10171000A0932A2280E290E090932C2280932B22A7
:101720008EEC90E09093302280932F2288ED90E011
:10173000909331228093302287EE90E09093322272
:101740008093312290933322809332228FEE90E067
:10175000909334228093332286EF90E090933B2243
:1017600080933A2287E790E090933C2280933B223B
:1017700088E890E090933D2280933C228FE390E0B4
:1017800090933F2280933E22EFE6F0E0F0938A228E
:10179000E09389228AE090E090938B2280938A22C2
:1017A00082E390E090938C2280938B2288EE90E0ED
:1017B00090938E2280938D228AEF90E090938F22D7
:1017C00080938E223093902220938F2242E150E02A
:1017D000509391224093902280E790E09093922240
:1017E0008093912250939322409392228AE290E038
:1017F000909394228093932288EF90E09093952287
:10180000809394228FE490E0909396228093952287
:1018100081E090E090939C2280939B222FE930E01E
:1018200030939D2220939C2288E790E090939E2203
:1018300080939D22B0939F22A0939E223093A12259
:101840002093A0227093A2226093A122F093A3225E
:10185000E093A2225093A5224093A42281E190E03C
:101860009093A8228093A72280E390E09093AC22EB
:101870008093AB2280910022909101228F7790700B
:10188000909301228093002270930322609302229E
:1018900070930422609303227093072260930622C0
:1018A000709308226093072284E890E090930222CC
:1018B000809301221093C1220093C02287EF90E011
:1018C0009093052280930422709306226093052250
:1018D0008CE190E09093B6228093B52286E090E070
:1018E0009093982280939722109299221092982296
:1018F00085EC90E09093B1228093B02284E090E058
:101900000097F1F78FEF90E09093C1228093C0226F
:1019100088E090E09093B6228093B52289EC90E025
:101920009093B1228093B022109206221092052249
:1019300040911C0150911D0110921D0110921C013B
:1019400081EF90E09093782280937722809100221B
:10195000909101228F7390709093012280930022C6
:1019600020910C0130910D0180917E2290917F2277
:101970008F708F30F1F32F7E30708E30D1F730932F
:101980000D0120930C018EEF90E0909378228093CC
:1019900077228FEF90E090936322809362221092DF
:1019A0006E2210926D221092702210926F228BE79D
:1019B00090E09093C5228093C422842F992790931E
:1019C0001D0180931C0186E190E090939221809309
:1019D00091211092832010928220109282201092E6
:1019E0008120109203201092022010920220109267
:1019F00001208091C0229091C12281608F7E9093BE
:101A0000C1228093C02280910D2290910E228F706E
:101A1000907090930E2280930D22209132012B31F1
:101A200010F08AE103C02B3020F48BE08093320168
:101A300002C02093320180919F229091A02281398F
:101A4000910509F0E1C0223109F467C02331A0F407
:101A50002E3009F442C02F3040F42C3071F12D307B
:101A6000A0F52B3009F0A1C020C0203109F445C0F9
:101A7000213108F04AC039C0263109F468C0273145
:101A800038F4243109F451C0253108F057C08DC015
:101A9000283109F46EC0283108F462C0293109F4F4
:101AA00071C02A3109F081C076C082E290E0909343
:101AB0008C2280938B2236E07FC082E290E090936C
:101AC0008C2280938B223CE037C082E290E090939E
:101AD0008C2280938B2232E138C082E290E0909396
:101AE0008C2280938B2239E139C082E290E090937E
:101AF0008C2280938B223BEB3AC082E290E0909361
:101B00008C2280938B2231EC3BC082E290E0909358
:101B10008C2280938B2237EC3CC082E290E0909341
:101B20008C2280938B2232E319C082E290E0909362
:101B30008C2280938B223EE320E83FC082E290E03B
:101B400090938C2280938B2234E420EC36C082E286
:101B500090E090938C2280938B223BE420E02DC078
:101B600082E290E090938C2280938B223DEE20E4E1
:101B70001AC082E290E090938C2280938B2233EF04
:101B800020E811C082E290E090938C2280938B2217
:101B900039EF20EC08C08BE290E090938C22809388
:101BA0008B2230E020E083E009C082E290E0909355
:101BB0008C2280938B2238E320E482E09927909353
:101BC000812280938022832F99279093872280936C
:101BD0008622822F992790938822809387224CEE29
:101BE00050E050938A224093892220E030E0809197
:101BF0008A2290918B2286FD77C12F5F3F4F80E133
:101C000020303807D1F7EDCF109205221092042230
:101C10008FEF90E090930622809305221092072286
:101C2000109206229093082280930722223109F411
:101C30008BC02331A0F42E3009F451C02F3040F472
:101C40002C3099F12D30F0F52B3009F0F4C020C084
:101C5000203109F45EC0213108F069C04DC0263141
:101C600009F4A5C0273138F4243109F486C02531A0
:101C700008F090C076C0283109F4B4C0283108F4C7
:101C8000A4C0293109F4BBC02A3109F0D4C0C5C0B1
:101C900080918022909181228073907082609093D5
:101CA00081228093802236E0D9C080918022909159
:101CB0008122807390708260909381228093802231
:101CC0003CE033C08091802290918122807390709B
:101CD0008260909381228093802232E19CC0809127
:101CE00080229091812280739070826090938122F3
:101CF0008093802239E167C0809180229091812277
:101D000080739070836090938122809380223BEB5C
:101D1000A5C0809180229091812280739070836011
:101D2000909381228093802231EC20E898C08091AA
:101D300080229091812280739070836090938122A1
:101D40008093802237EC67C080918022909181221D
:101D5000807390708260909381228093802232E31E
:101D600032C0809180229091812280739070826035
:101D7000909381228093802270C0809180229091E4
:101D80008122807390708260909381228093802260
:101D90003EE3CBCF8091802290918122807390701E
:101DA0008260909381228093802234E434C08091B9
:101DB0008022909181228073907082609093812222
:101DC000809380223BE420E04AC080918022909161
:101DD000812280739070836090938122809380220F
:101DE0003DEE3CC080918022909181228073907062
:101DF0008360909381228093802233EF96CF8091ED
:101E000080229091812280739070836090938122D0
:101E10008093802239EF20EC22C080918022909123
:101E200081228073907083609093812280938022BE
:101E300030E020E00FC08091802290918122807359
:101E40009070826090938122809380222A3129F4BD
:101E500038E320E48BE390E004C038E320E482E33D
:101E600090E090938C2280938B228091812290919C
:101E70008222817090709093822280938122832F9E
:101E800099279093872280938622822F9927909377
:101E90008822809387224FEE50E050938A2240930D
:101EA000892220E030E080918A2290918B2286FD69
:101EB00007C02F5F3F4F90E120303907D1F7EDCFBA
:101EC00087EF90E090930522809304228FEF90E0BB
:101ED00090930622809305229093072280930622F6
:101EE00090930822809307228091330190913401CE
:101EF000282F33273093592120935821892F992750
:101F000090935A21809359212091390130913A01BF
:101F100080911E01992790931F0180931E01309399
:101F2000420720934107822F992790935B2180934A
:101F30005A21232F332730935C2120935B2120915A
:101F4000460180919F229091A02233274427552754
:101F50008139910509F07FC0F9012331310508F07D
:101F600017C1E65AFF4FEE0FFF1F0590F491E02DC9
:101F7000099486E990E002C082E990E09093A12262
:101F80008093A02288EF90E00BC180E990E07BC0B5
:101F90008CE190E09093A1228093A02289EF90E0C1
:101FA000FFC08AE190E0F6C08BE190E09093A1221F
:101FB0008093A02286EE90E0F3C088E190E09093B9
:101FC000A1228093A0228EEE90E0EAC088E190E00A
:101FD00017C087E190E002C086E190E09093A122D3
:101FE0008093A02285EE90E0DBC083E190E09093A7
:101FF000A1228093A02284EE90E0D2C082E190E002
:102000009093A1228093A02287EE90E0C9C082E144
:1020100090E09093A1228093A02281EE90E0C0C036
:1020200081E190E081C081E190E09093A1228093D2
:10203000A02281EE90E08DC083E190E09093A122F8
:102040008093A02284EE90E09093A2228093A1221C
:1020500088E190E0ABC0F9012331310508F098C068
:10206000E359FF4FEE0FFF1F0590F491E02D099407
:102070008FE990E09093A1228093A02285EF90E0D9
:102080008FC08DE990E09093A1228093A02280EFF1
:1020900090E086C08FE990E002C085E990E09093DF
:1020A000A1228093A0228DEE90E07AC08FE190E093
:1020B0009093A1228093A02283EF90E071C08FE1E2
:1020C00090E09093A1228093A0228CEE90E068C0D3
:1020D0008EE190E09093A1228093A0228AEE90E07E
:1020E0005FC08CE190E09093A1228093A02289EEC2
:1020F00090E056C08EE190E002C088E190E09093BD
:10210000A1228093A02283EE90E04AC088E190E073
:1021100002C083E190E09093A1228093A02282EEFE
:1021200090E03EC082E190E09093A1228093A022B3
:1021300082EE90E09093A2228093A1228EE690E01E
:1021400035C081E190E09093A1228093A02282EE9D
:1021500090E09093A2228093A1228DE690E026C089
:102160008FE990E09093A1228093A0228FEF90E0DE
:1021700008C088E190E09093A1228093A02287EE8E
:1021800090E09093A2228093A1228CE190E00EC077
:102190008FE990E09093A1228093A0228FEF90E0AE
:1021A0009093A2228093A1228FE690E09093A322A5
:1021B0008093A22283E08093450181E090E0909398
:1021C0001D0780931C0710921B0110921A01909317
:1021D0001D0180931C018E2D992790931F018093E0
:1021E0001E01109291060C94B21C81E0809345016F
:1021F0000C94B21C8091440190911E01692F7727A5
:1022000070931F0160931E0193E09093450120910C
:102210008B0630918C06882391F020911E018091CD
:1022200026019091270180959095909327018093A6
:102230002601332730931F0120931E0123C01092E3
:102240001F0110921E0140917701E42FFF27EE0F2E
:10225000FF1FE256F94F808191812817390771F4E9
:10226000842F8F5F809377018C3010F0109277016C
:1022700080919106882311F01092910670931F01AE
:1022800060931E0120911E0130911F0110921F01C9
:1022900010921E01809152078F3F11F00C94541B35
:1022A00080916807813011F00C94031C0C94541B2E
:1022B00081E00C94CB1AE0916807FF27EF5AF84FA2
:1022C00081E00C94D41A00911E0110911F0110920C
:1022D0001F0110921E018091C3229091C42220916F
:1022E000780130917901892B11F4790103C07901CA
:1022F000F694E79410921F0110921E01209148015C
:102300003091490140914A0150914B01E0910801FF
:10231000F091090160910401709105018091000123
:102320009091010185FF04C02F5F3F4F4F4F5F4FDA
:10233000BFE0220F331F441F551FBA95D1F79E2FC0
:102340008827862B972B96958795AA27BB27282B1E
:10235000392B4A2B5B2B2093600130936101409312
:10236000620150936301C701AA27BB2780936401D0
:1023700090936501A0936601B09367018091680115
:1023800083608093680110921F0110921E0180915A
:102390005E078F3FA1F4809168078D3011F00C9497
:1023A0000B1C0DC08DE08093500707C0E0916807BB
:1023B000FF27EF5AF84F8DE0808380936807802FC6
:1023C00099270C94E61B809168018D7F80936801AA
:1023D0000C94B21CE0919906F0919A06BA968091FD
:1023E000752290917622282F235D21832D52181675
:1023F0001CF46EE60C94131C2D391CF462E30C944F
:10240000131C822F992787FD90958C599F4F2CE3A1
:1024100030E0DC01A29FC001A39F900DB29F900D00
:10242000112464E670E00E9408516E5C0C94131C49
:102430008091E8039927FC01EE0FFF1FEC5DF84F38
:10244000E080F180B183A08301966CE070E00E948F
:102450001C518093E80320919B06281719F481E012
:1024600080931E0780916507882381F510921F01D4
:1024700010921E01809151078F3F89F48091680767
:10248000882369F00C942C1C1092500706C0E09130
:102490006807FF27EF5AF84F1082109268071092D2
:1024A0001F0110921E0181E0809365070FC080918B
:1024B0002601909127018095909590932701809314
:1024C000260110921F0110921E017D0110931F0121
:1024D00000931E01F0929A06E0929906109247012D
:1024E0000C94B21C80916901882309F02DC14090A1
:1024F0001E0150901F0110921F0110921E0160904A
:102500003D0770903E0780903F0790904007E09015
:102510008106F090820600918306109184068091D6
:10252000E4039091E503A091E603B091E703E80E80
:10253000F91E0A1F1B1F10926901E0928106F0929A
:10254000820600938306109384066092E4037092DF
:10255000E5038092E6039092E703209148013091D1
:10256000490140914A0150914B01E0910801F091DD
:102570000901609104017091050180910001909121
:10258000010185FF04C02F5F3F4F4F4F5F4FBFE0FA
:10259000220F331F441F551FBA95D1F79E2F88274E
:1025A000862B972B96958795AA27BB27282B392B07
:1025B0004A2B5B2BDA01C9018E199F09A00BB10BC5
:1025C0001092850686159705A805B905C0F0E60C9A
:1025D000F71C081D191DE0928106F09282060093F7
:1025E0008306109384061092E4031092E503109280
:1025F000E6031092E703AA24BB24650169C06401C5
:102600005301A81AB90ACA0ADB0A61E0A61660E8F3
:10261000B60660E0C60660E0D606B8F070E0A71621
:1026200070E0B70670E8C70670E0D70620F08FEFBD
:102630008093850683C0EFE0D694C794B794A7949F
:10264000EA95D1F7A092850679C081E0A81680E4CA
:10265000B80680E0C80680E0D80630F12050304C43
:102660004F4F5F4F2093810630938206409383063D
:1026700050938406205030444040504060E070EC5D
:102680008FEF9FEFA60EB71EC81ED91EA092E403BF
:10269000B092E503C092E603D092E703A12C70E468
:1026A000B72EC12CD12C14C0E60CF71C081D191D27
:1026B000E0928106F09282060093830610938406CE
:1026C0001092E4031092E5031092E6031092E703E0
:1026D0008091080190910901782F6627809104016B
:1026E00090910501682B792B220F331FC501880FAC
:1026F000991F280F391FCB0102962817390718F4A4
:1027000082E090E003C0C901861B970B80959095ED
:102710000197292F332730930B0120930A019070E2
:10272000909307018093060110922D0110922C01C5
:1027300081E090E09093230180932201842D9927DA
:1027400090931F0180931E0160911E0170911F01E3
:1027500010921F0110921E012091480130914901F1
:1027600040914A0150914B01A0910801B09109019B
:10277000E0910401F0910501809100019091010127
:1027800085FF04C02F5F3F4F4F4F5F4F862F992724
:1027900090931F0180931E016091680161FF52C4F4
:1027A000E0906001F090610100916201109163017D
:1027B000A0906401B0906501C0906601D09067015F
:1027C0009FE0220F331F441F551F9A95D1F79A2F70
:1027D00088278E2B9F2B96958795AA27BB27282B7A
:1027E000392B4A2B5B2B2E193F09400B510B2A1515
:1027F0003B054C055D0508F425C460FF04C06D7FF2
:10280000609368010CC0EA0CFB1C0C1D1D1DE092BE
:102810006001F09261010093620110936301809165
:102820001E0190911F019DA78CA710921F0110926D
:102830001E0180911C0790911D078330910509F4BA
:102840006EC18430910509F47EC1029709F0A3C1DD
:102850008091702290917122807711F0803121F562
:102860001092032010920220809100229091012268
:102870008B7F9070909301228093002283E090E000
:1028800090931D0780931C078BE99CE0909379013E
:102890008093780110921F0110921E0180915707BA
:1028A0008F3F09F074C145C010921F0110921E01A4
:1028B0002090E0033090E1034090E2035090E30366
:1028C0006624772488248EE4A82E03E8B02ECC2436
:1028D000DD24EE24FF2400E010E0222D332D442DD2
:1028E000552D662D772D882D90E00E94874F2C87DF
:1028F0003D874E875F87688B798B8A8B9B8B822E77
:10290000932EA42EB52E2401350100E20E9485509D
:10291000A22EB32EC42ED52EA30192015695479513
:10292000379527952A0D3B1D4C1D5D1D5523ACF495
:102930000FC080916807863009F096C728C186E0ED
:102940001AC1E0916807FF27EF5AF84F86E01CC1D3
:102950005F772F5F3F4F4F4F5F4F2093E0033093E0
:10296000E1034093E2035093E30310921F0110929E
:102970001E01B901677070706F5F7F4F79F080EF53
:1029800090E0DC016A9FC0016B9F900D7A9F900DD3
:1029900011249093790180937801A5C081E090E0A3
:1029A00090931D0780931C07809170229091712253
:1029B000807711F0803191F510920320109202205F
:1029C00080910022909101228B7F90709093012240
:1029D0008093002283E090E090931D0780931C0772
:1029E0008BE99CE0909379018093780110921F010C
:1029F00010921E01809157078F3F09F08BC0809184
:102A00006807863009F036C785C086E077C0E09158
:102A10006807FF27EF5AF84F86E079C082E090E020
:102A200090931D0780931C0710921F0110921E01A6
:102A300019012A01662477248824BEE4AB2EA3E87A
:102A4000BA2ECC24DD24EE24FF2400E010E0222D59
:102A5000332D442D552D662D772D882D90E00E9425
:102A6000874F2C8B3D8B4E8B5F8B688F798F8A8F36
:102A70009B8F822E932EA42EB52E2401350100E2C9
:102A80000E948550A22EB32EC42ED52ED301C20192
:102A9000B695A795979587958A0D9B1DAC1DBD1D75
:102AA000B7FF04C0BF770196A11DB11D8093E0035D
:102AB0009093E103A093E203B093E3038F719070CE
:102AC000019620EF30E0FC01E29FC001E39F900DF2
:102AD000F29F900D112490937901809378011092C8
:102AE0001F0110921E01809158078F3F99F4809129
:102AF0006807873009F0C4C60DC087E0809350078F
:102B000007C0E0916807FF27EF5AF84F87E08083FE
:102B10008093680710921F0110921E0138C08091A7
:102B200000229091012284609093012280930022E0
:102B30008091CC229091CD228C7F90708360909375
:102B4000CD228093CC2281E090E090931D0780936A
:102B50001C0781E08093440110921F0110921E0116
:102B6000809156078F3F99F480916807853009F06E
:102B70008DC60DC085E08093500707C0E0916807BF
:102B8000FF27EF5AF84F85E0808380936807109203
:102B90001F0110921E01FCA58F2F99274FC2609133
:102BA0001E0170911F0110921F0110921E012091B1
:102BB00048013091490140914A0150914B01A09147
:102BC0000801B09109010091040110910501809163
:102BD000000190910101E5E096958795EA95E1F76E
:102BE000FC01E170F070FDA7ECA780FF04C02F5F2F
:102BF0003F4F4F4F5F4F10922301109222017727D2
:102C00007A83698370931F0160931E01609168014C
:102C100061FFA8C659016A017FE0AA0CBB1CCC1C4D
:102C2000DD1C7A95D1F79A2F8827802B912B9695CA
:102C300087951C0144245524A228B328C428D528EC
:102C400060906001709061018090620190906301DA
:102C5000D601C50186199709A809B909209164010F
:102C600030916501409166015091670179018A01B7
:102C7000E81AF90A0A0B1B0BFFEFEF16FFEFFF062E
:102C8000FFEF0F07FFE71F0709F46CC61E141F04B0
:102C9000100611060CF4F2C117C660FF04C06D7F68
:102CA000609368010CC0620E731E841E951E6092B4
:102CB00060017092610180926201909263012091A3
:102CC0001E0130911F013DA72CA710921F011092E9
:102CD0001E0180911C0790911D078330910509F416
:102CE0006EC18430910509F47EC1029709F0A3C139
:102CF0008091702290917122807711F0803121F5BE
:102D000010920320109202208091002290910122C3
:102D10008B7F9070909301228093002283E090E05B
:102D200090931D0780931C078BE99CE09093790199
:102D30008093780110921F0110921E018091570715
:102D40008F3F09F074C145C010921F0110921E01FF
:102D50002090E0033090E1034090E2035090E303C1
:102D60006624772488243EE4A32E23E8B22ECC24C4
:102D7000DD24EE24FF2400E010E0222D332D442D2D
:102D8000552D662D772D882D90E00E94874F2C8F32
:102D90003D8F4E8F5F8F68A379A38AA39BA3822E5A
:102DA000932EA42EB52E2401350100E20E948550F9
:102DB000A22EB32EC42ED52EA3019201569547956F
:102DC000379527952A0D3B1D4C1D5D1D5523ACF4F1
:102DD0000FC080916807863009F05EC528C186E083
:102DE0001AC1E0916807FF27EF5AF84F86E01CC12F
:102DF0005F772F5F3F4F4F4F5F4F2093E00330933C
:102E0000E1034093E2035093E30310921F011092F9
:102E10001E01B901677070706F5F7F4F79F080EFAE
:102E200090E0AC01649FC001659F900D749F900D70
:102E300011249093790180937801A5C081E090E0FE
:102E400090931D0780931C078091702290917122AE
:102E5000807711F0803191F51092032010920220BA
:102E600080910022909101228B7F9070909301229B
:102E70008093002283E090E090931D0780931C07CD
:102E80008BE99CE0909379018093780110921F0167
:102E900010921E01809157078F3F09F08BC08091DF
:102EA0006807863009F0FEC485C086E077C0E091EF
:102EB0006807FF27EF5AF84F86E079C082E090E07C
:102EC00090931D0780931C0710921F0110921E0102
:102ED00019012A016624772488248EE4A82E03E8A9
:102EE000B02ECC24DD24EE24FF2400E010E0222DBF
:102EF000332D442D552D662D772D882D90E00E9481
:102F0000874F2CA33DA34EA35FA368A779A78AA7E9
:102F10009BA7822E932EA42EB52E2401350100E20C
:102F20000E948550A22EB32EC42ED52ED301C201ED
:102F3000B695A795979587958A0D9B1DAC1DBD1DD0
:102F4000B7FF04C0BF770196A11DB11D8093E003B8
:102F50009093E103A093E203B093E3038F71907029
:102F6000019620EF30E0BC01629FC001639F900D8D
:102F7000729F900D112490937901809378011092A3
:102F80001F0110921E01809158078F3F99F4809184
:102F90006807873009F08CC40DC087E08093500724
:102FA00007C0E0916807FF27EF5AF84F87E080835A
:102FB0008093680710921F0110921E0138C0809103
:102FC000002290910122846090930122809300223C
:102FD0008091CC229091CD228C7F907083609093D1
:102FE000CD228093CC2281E090E090931D078093C6
:102FF0001C0781E08093440110921F0110921E0172
:10300000809156078F3F99F480916807853009F0C9
:1030100055C40DC085E08093500707C0E091680754
:10302000FF27EF5AF84F85E080838093680710925E
:103030001F0110921E017CA5872F992790931F01D5
:1030400080931E0120911E0130911F0110921F01DB
:1030500010921E0180915E078F3F09F025C3809179
:1030600068078D3009F037C41FC38DE094C2E0912A
:103070006807FF27EF5AF84F8DE096C210921F01A4
:1030800010921E01E0923D07F0923E0700933F0729
:103090001093400781E080936901A0928106B0926D
:1030A0008206C0928306D0928406E092E403F092F6
:1030B000E5030093E6031093E70320914801309164
:1030C000490140914A0150914B018CA5882321F080
:1030D0002F5F3F4F4F4F5F4FFFE0220F331F441FC3
:1030E000551FFA95D1F72229332944295529DA01A8
:1030F000C9018A199B09AC09BD09109285068E1574
:103100009F05A007B107C0F0AE0CBF1CC01ED11EAA
:10311000A0928106B0928206C0928306D092840665
:103120001092E4031092E5031092E6031092E70375
:1031300066247724430169C037014801681A790A77
:103140008A0A9B0A91E0691690E8790690E0890660
:1031500090E09906B8F0A0E06A16A0E07A06A0E830
:103160008A06A0E09A0620F08FEF8093850683C040
:10317000EFE09694879477946794EA95D1F76092FC
:10318000850679C0B1E06B16B0E47B06B0E08B0633
:10319000B0E09B0630F12050304C4F4F5F4F2093F2
:1031A0008106309382064093830650938406205014
:1031B00030444040504060E070EC8FEF9FEF660E6F
:1031C000771E881E991E6092E4037092E503809238
:1031D000E6039092E703612C70E4772E812C912C0A
:1031E00014C0AE0CBF1CC01ED11EA0928106B092AE
:1031F0008206C0928306D09284061092E403109255
:10320000E5031092E6031092E70380910801909184
:103210000901782F66278091040190910501682BA0
:10322000792B220F331FC301880F991F280F391FD5
:10323000CB0102962817390718F482E090E003C00A
:10324000C901861B970B809590950197292F3327ED
:1032500030930B0120930A019070909307018093A3
:10326000060110922D0110922C0181E090E09093C4
:1032700023018093220189819A81A8C280911E0135
:1032800010921F0110921E0110921C0420914507FC
:1032900090E0283019F0293011F023C391E010920A
:1032A0004507E0914607FF27EE0FFF1FEB56F94F4A
:1032B0001082282F332730931F0120931E01109274
:1032C0001F0110921E01809192068F5F80939206DB
:1032D00080914707833479F490914907809148079A
:1032E000891779F0892F8F5F80934907863048F0DE
:1032F0001092490706C070E0992309F471E061E07B
:1033000002C070E060E030931F0120931E01909195
:103310004C0180911E01282F332730931F012093E9
:103320001E01992321F08AE0809345073CC040911B
:1033300095068091970610921F0110921E0190E051
:1033400050914807E09149075E1709F491E03093E6
:103350001F0120931E01992319F5442309F51092AA
:103360001F0110921E0182E08093950680911E013C
:103370005E1709F441E0992790931F0180931E0185
:10338000442311F0E0E004C0FF27E85BF84FE2813E
:10339000E093960683E480934707109246070BC09C
:1033A0008150823010F040E00BC085E480934707E5
:1033B00081E08093460730931F0120931E0141E076
:1033C000662339F120911E0130911F017093550140
:1033D00010921F0110921E01809163078F3F99F494
:1033E00080916807823109F088C20DC082E1809324
:1033F000500707C0E0916807FF27EF5AF84F82E1B6
:10340000808380936807822F992790931F01809370
:103410001E0180911E0110921F0110921E01982F13
:10342000809145078A3029F580919D06843009F006
:103430006AC2809161078F3F99F48091680780315B
:1034400009F065C20DC080E18093500707C0E0918C
:103450006807FF27EF5AF84F80E180838093680761
:1034600010921F0110921E0110924C01892F992772
:10347000ADC1292F332730931F0120931E01442310
:1034800009F470C210928E0610928D0610928F066B
:1034900081E08093450780915D018E7F80935D017F
:1034A0008EE7809322078091430790914407892BF0
:1034B00009F033C282E297E0909344078093430778
:1034C00081E090E090938A06809389069093880625
:1034D000809387068EE790E09093112580931025C6
:1034E00080911E0172C110921F0110921E018091E5
:1034F0005F078F3F29F4809168078E3009F01AC268
:1035000010921F0110921E0163C08EE0809350073D
:1035100007C0E0916807FF27EF5AF84F8EE08083DD
:103520008093680710921F0110921E0181E0809322
:103530001C044EC080911E0120911125309112254E
:103540002360309312252093112521E030E0309341
:103550002101209320011092450710929D06992782
:1035600090931F0180931E0110921E07FBC12091B2
:103570001E0130911F0110921F0110921E018091B7
:1035800062078F3F09F090C080916807813109F090
:10359000D7C18AC081E18093500707C0E0916807D6
:1035A000FF27EF5AF84F81E18083809368077CC042
:1035B00020911E0180911125909112258C7F90936E
:1035C000122580931125109221011092200133279A
:1035D00030931F0120931E01C5C110925201109219
:1035E00051019091550180911E01282F332730936E
:1035F0001F0120931E0180915601811193E060917B
:103600004F017091500180915701882309F0AAC1A0
:10361000992359F0809126019091270180959095EA
:1036200090932701809326011FC010921F011092D2
:103630001E0140919B06E42FFF27EE0FFF1FEC5D5C
:10364000F84F808191816817790771F4842F8F5F1B
:1036500080939B068C3010F010929B0680911E0781
:10366000882311F010921E0730931F0120931E0132
:1036700020911E0130911F0110921F0110921E0116
:10368000809151078F3F81F480916807882361F012
:103690005DC11092500706C0E0916807FF27EF5AFE
:1036A000F84F108210926807822F99278FC090914F
:1036B000590120915A0130915B01A0917A018091CA
:1036C0001E01682F772770931F0160931E019923B5
:1036D00009F060C010921F0110921E0180919106A6
:1036E000882309F043C080919C06E82FFF27EE0F46
:1036F000FF1FE256F94F40815181318320838F5F54
:1037000080939C068C3010F010929C0690919C0641
:1037100080917701981719F481E080939106809148
:103720007B01882391F510921F0110921E01809158
:1037300052078F3F99F480916807813009F00CC1DE
:103740000DC081E08093500707C0E0916807FF2714
:10375000EF5AF84F81E080838093680710921F0131
:1037600010921E0181E080937B010FC080912601A1
:103770009091270180959095909327018093260141
:1037800010921F0110921E01A90170931F016093F6
:103790001E019A0180911E0190911F0110921F013C
:1037A00010921E01EA2FFF27EE0FFF1FE45CFE4F71
:1037B0003183208320914D01AA2311F02B7F01C07A
:1037C0002D7F20934D0110925801992790931F014E
:1037D00080931E01C7C0809150078F3F11F00C9459
:1037E000E0070C94DC07809150078F3F11F00C9498
:1037F0001E090C941A09809150078F3F11F00C9408
:10380000B1090C94AD09809150078F3F11F00C94D1
:103810005B110C945811809150078F3F11F00C945C
:10382000D6110C94D2116283A0919906B0919A0698
:1038300080911E01082F112710931F0100931E0174
:1038400010921F0110921E0180911E07882311F40F
:103850000C9418120C945712809150078F3F11F05E
:103860000C9447120C944412809150078F3F09F03A
:1038700068C865C8809150078F3F09F0C8C8C5C89F
:10388000809150078F3F09F03CC937C9809150079C
:103890008F3F09F073C96EC9809150078F3F09F0BF
:1038A000A0CA9DCA809150078F3F09F000CBFDCA86
:1038B000809150078F3F09F074CB6FCB80915007F8
:1038C0008F3F09F0ABCBA6CB82179307A407B507B0
:1038D00008F0E3C9B7CB809150078F3F09F0C7CB01
:1038E000C4CB992790931F0180931E01222311F0CE
:1038F00040E08FCD70E060E00ACD809150078F3FAF
:1039000009F078CD73CD81E080934C01AFCD8091EB
:1039100050078F3F09F09BCD96CD89E080934507F6
:1039200010921F0110921E0180911C04882309F43B
:10393000DACD4ECE809150078F3F09F0EACDE5CD2C
:10394000809150078F3F09F029CE24CE80915007F7
:103950008F3F09F0A1CE9DCE809150078F3F09F097
:10396000F4CEEFCEAD960FB6F894DEBF0FBECDBF4E
:10397000DF91CF911F910F91FF90EF90DF90CF904B
:10398000BF90AF909F908F907F906F905F904F907F
:103990003F902F9008951F920F920FB60F9211240F
:1039A0002F933F934F935F936F938F939F93EF93D7
:1039B000FF93809112259091132595958795482F17
:1039C0004770423009F0CFC2209110253091112567
:1039D000622FE0917101F09172013097C9F08091EE
:1039E0001F0790912007E80FF91F208301969093FD
:1039F000200780931F072091690730916A0782177B
:103A0000930708F4F7C41092720110927101F2C486
:103A10002E3709F033C180919D06813009F4EAC444
:103A2000813020F0833009F003C10FC010926D0186
:103A300010926C01109221071092230710929006A9
:103A400010926B0110926A0117C1809121078F3F7C
:103A500009F4EEC0823008F4EBC0E0916C01EE2373
:103A600009F49FC44E2F4150E42FFF27E459FE4F25
:103A700082819927382F2227442311F4E2E002C0E3
:103A8000E42FE150FF27E459FE4F82819927282B2C
:103A9000392B80916A0190916B012817390709F041
:103AA000C7C08091580130914D018823B1F521E0C4
:103AB0002093580180913B0180935901832F81709D
:103AC00080937A01809140019091410190935B0134
:103AD00080935A0180914E0180935C0123272170CD
:103AE000367EE22FFF27EE0FFF1FE45CFE4F808142
:103AF00091819093410180934001322B30934D018D
:103B000020911E0130911F0110921F0110921E0181
:103B1000809164078F3FE1F408C030FF02C03B7F13
:103B200001C03D7F30934D0119C0809168078331FA
:103B300009F03EC40DC083E18093500707C0E091B7
:103B40006807FF27EF5AF84F83E180838093680767
:103B5000822F992790931F0180931E013091900628
:103B60008091480720914907982F9F5F963008F071
:103B700090E0921709F440C0E82FFF27E85BF84F68
:103B800032838F5F80934807863010F01092480789
:103B900020911E0130911F0110921F0110921E01F1
:103BA00080911C04882311F580915F078F3F29F4D1
:103BB000809168078E3009F001C410921F011092A5
:103BC0001E0114C08EE08093500707C0E091680783
:103BD000FF27EF5AF84F8EE080838093680710929A
:103BE0001F0110921E0181E080931C04822F9927EF
:103BF00090931F0180931E0110926D0110926C0131
:103C000094E090939D061092210710922307109242
:103C1000900610926B0110926A0180915D018D7F78
:103C200080935D0180914C01882309F4E3C372C144
:103C300010926D0110926C0184E080939D061092A9
:103C40002107109223071092900610926B01109298
:103C50006A0180915D018D7F80935D0180914D01AE
:103C600080FF02C08B7F01C08D7F80934D018091CA
:103C70004C01882309F04BC181E099C080915D011E
:103C80002D3721F4826080935D01B4C381FF05C0AC
:103C90008D7F80935D0180E2682780919D06813051
:103CA00051F0813008F4A6C3823009F453C0833048
:103CB00009F009C17FC080916A0190916B01209148
:103CC0006B013327982F8827282B392B862F99278C
:103CD00028273927822F82958F709927822793274B
:103CE0009C01322F22273295307F28273927C9019E
:103CF000907055E0880F991F5A95E1F728273927CA
:103D000030936B0120936A0140939D0660932307D3
:103D1000643409F0D8C058C38695869503C0809155
:103D20004D018695817009F0CEC030914D019923E7
:103D300011F0346001C0326030934D0180914D012B
:103D4000877E886080934D0110924E018FEF8093A3
:103D50003B0150C36093900680916A0190916B0182
:103D600020916B013327982F8827282B392B862FFA
:103D7000992728273927822F82958F7099278227A4
:103D800093279C01322F22273295307F282739270D
:103D9000C9019070689414F8880F991F1694E1F780
:103DA0002827392730936B0120936A0183E08093A1
:103DB0009D0620C3809121078F3F09F484C0823083
:103DC00008F46DC0E0916D01FF27E459FE4F828138
:103DD000482F5527342F20914D01822F86958695A7
:103DE0008695837099278130910519F00297F9F42F
:103DF0000EC0277E206120934D01442311F485E0FD
:103E000001C080E080934E0130933B0110C080914F
:103E10004E01833360F4E0914001F0914101E80FDD
:103E2000F11D408380914E018F5F80934E01809100
:103E30006D01E82FFF27E459FE4F42818F5F809389
:103E40006D01833010F010926D0180916A019091A4
:103E50006B0120916B013327982F8827282B392B52
:103E6000842F992728273927822F82958F709927A9
:103E7000822793279C01322F22273295307F2827D3
:103E80003927C9019070689414F8880F991F169407
:103E9000E1F72827392730936B0120936A0180913D
:103EA0006C01E82FFF27E459FE4F62838F5F8093F8
:103EB0006C01833010F010926C01809121078F5FAC
:103EC0008093210797C210926D0110926C0184E0DB
:103ED00080939D061092210710922307109290065E
:103EE00010926B0110926A0180915D018D7F809329
:103EF0005D0180914D0180FF02C08B7F01C08D7FED
:103F000080934D0180914C01882309F473C284E0B1
:103F100080939D06809145078A3009F05CC220910C
:103F20001E0130911F01809161078F3F99F48091AC
:103F30006807803109F053C20DC080E180935007BB
:103F400007C0E0916807FF27EF5AF84F80E18083B0
:103F500080936807822F992790931F0180931E01F9
:103F600010924C0147C2413009F044C2E09143072E
:103F7000F0914407309709F43DC2209187063091B3
:103F800088068091890690918A062817390778F467
:103F9000E20FF31F80812F5F3F4F309388062093FD
:103FA00087069927909311258093102524C010929D
:103FB00044071092430730915D0130FF20C03E7FDF
:103FC00030935D01209186062093220782E297E0DC
:103FD000909344078093430781E090E090938A0692
:103FE00080938906909388068093870633273093C1
:103FF00011252093102580911E019927CDC1809114
:104000004507843009F401C1853048F48230B9F0A5
:10401000833008F073C0813009F08BC10DC0863049
:1040200009F45EC1863008F423C1873009F47FC1EA
:10403000883009F07EC180C14091470702C040919D
:104040009206842F8D57823058F4316030935D0191
:1040500080E28427809386068DE78093220702C042
:104060004093220782E297E09093440780934307AE
:1040700021E030E030938A06209389068091220760
:104080003093880620938706992790931125809373
:10409000102580911E01992790931F0180931E0186
:1040A00083E08093450780918D0690918E06209144
:1040B0008E063327982F8827282B392B842F992772
:1040C00028273927822F82958F7099278227932757
:1040D0009C01322F22273295307F28273927C901AA
:1040E0009070689414F8880F991F1694E1F72827A8
:1040F000392730938E0620938D067CC14091460768
:10410000E42FFF27EE0FFF1FEA56F94FE0818E2FB5
:104110008D57823058F4316030935D0180E28E27F4
:10412000809386068DE78093220702C0E0932207E2
:1041300082E297E0909344078093430721E030E0C8
:1041400030938A062093890680912207309388064F
:1041500020938706992790931125809310258091AD
:104160001E01992790931F0180931E0180918D0657
:1041700090918E0620918E063327982F8827282B22
:10418000392B8E2F992728273927822F82958F70D8
:104190009927822793279C01322F22273295307F3F
:1041A00028273927C901907055E0880F991F5A9523
:1041B000E1F72827392730938E0620938D0620912A
:1041C0008F062F5F20938F064130E9F480915401D0
:1041D000E0914F01F0915001E80FF11DE0818F5FF8
:1041E0008093540190915301981720F482E08093BA
:1041F000970609C080919706823029F02F3F19F069
:10420000E0939806F7C084E08FC090918D06892FC7
:104210008D57823058F4316030935D0180E29827E9
:10422000909386068DE78093220702C09093220721
:1042300082E297E0909344078093430721E030E0C7
:1042400030938A062093890680912207309388064E
:1042500020938706992790931125809310258091AC
:104260001E01992790931F0180931E0185E05CC079
:1042700080918D0690918E06492F5527242F842FEB
:104280008D57823058F4316030935D0180E22827E9
:10429000209386068DE78093220702C04093220771
:1042A00082E297E0909344078093430721E030E057
:1042B00030938A06209389068091220730938806DE
:1042C000209387069927909311258093102580913C
:1042D0001E01992790931F0180931E0186E024C040
:1042E00020911E013E7F30935D018EE7809322076F
:1042F00082E297E0909344078093430781E090E047
:1043000090938A0680938906909388068093870607
:104310008EE790E0909311258093102533273093FA
:104320001F0120931E0187E08093450763C088E04A
:1043300001C089E08093450720911E0130911F0143
:1043400010921F0110921E0180911C04882311F508
:1043500080915F078F3F29F4809168078E3009F0C4
:1043600044C010921F0110921E0114C08EE0809371
:10437000500707C0E0916807FF27EF5AF84F8EE01B
:1043800080838093680710921F0110921E0181E0C4
:1043900080931C04822F992790931F0180931E0104
:1043A00029C0809170019927382F222742E068CBDD
:1043B000809150078F3F09F0C2CBBDCB8091500751
:1043C0008F3F09F003CCFECB80914D01982F917067
:1043D00080FDA2CCA4CC81E080934C010BC08091E5
:1043E00050078F3F09F0ADCDA8CD809150078F3F8A
:1043F00009F6BCCFFF91EF919F918F916F915F91E3
:104400004F913F912F910F900FBE0F901F901895D5
:104410002F923F924F925F926F927F928F929F92D4
:10442000AF92BF92CF92DF92EF92FF920F931F93C2
:10443000CF93DF93CDB7DEB7C056D0400FB6F89418
:10444000DEBF0FBECDBF10921F0110921E018FEF75
:10445000E1E5F7E0819327E0E536F207D9F78093AD
:104460005007809368078CE090E0909394068093C7
:10447000930680911001909111018F719093110119
:104480008093100181E090E090932B0180932A01AA
:10449000909329018093280190932701809326010E
:1044A00080911401909115018061877F90709093A5
:1044B0001501809314018FEF90E09093C4228093B4
:1044C000C32280910E0190910F018A6890930F0191
:1044D00080930E0180911601909117018161909354
:1044E0001701809316011092F1221092F0228FE3AF
:1044F00090E09093F3228093F22284EF90E09093E7
:10450000F4228093F32281E790E09093F522809348
:10451000F4221092F6221092F52280919F2290911F
:10452000A0228639910589F488EE90E09093F222DA
:104530008093F1221092F7221092F62280E890E008
:104540009093F8228093F72210C08CEE90E0909325
:10455000F2228093F12280E890E09093F7228093FA
:10456000F6221092F8221092F72282EC90E09093BB
:10457000F9228093F82210920901109208011092FA
:1045800005011092040181E090E090932501809351
:104590002401909331018093300190932F018093F7
:1045A0002E0180910201909103018161909303019A
:1045B00080930201809150078F3FE9F0909150075E
:1045C000E0915007FF27EF5AF84F80818093500702
:1045D000809150078F3F11F480936807292F33276C
:1045E000F901EF5AF84F8FEF80832F3F21F0822F90
:1045F0000E94F306DFCF86E090E09093132580932E
:10460000122583E090E09093142580931325109257
:104610001525109214258091C3229091C422892BD4
:1046200011F48CE301C08EE1209113253091142503
:10463000992790931125809310251092122510929E
:1046400011252F7730703093142520931325109265
:10465000720110927101109244071092430784E492
:1046600090E09093760180937501109295061092D8
:1046700097068AE08093450710928F0610924707AD
:104680001092920610928E0610928D0610921C04C3
:104690001092460710926D0110926C0184E0809395
:1046A0009D061092210710922307109290061092F7
:1046B0006B0110926A0110924907109248071092FC
:1046C000090110920801109205011092040181E085
:1046D00090E0909325018093240190933101809381
:1046E000300190932F0180932E018091420190918F
:1046F00043010196AA27BB278093E0039093E1032F
:10470000A093E203B093E30380914501882319F459
:1047100081E08093450110921D0710921C07809143
:1047200068018D7F8093680189EE93E090939A06EB
:1047300080939906809150078F3F11F40C94C238F2
:1047400090915007E0915007FF27EF5AF84F808172
:1047500080935007809150078F3F11F48093680732
:10476000892F9927FC01EF5AF84F2FEF20838F3FB5
:1047700011F40C94C238E82FFF27E431F105D0F68C
:10478000E058FF4FEE0FFF1F0590F491E02D0994C4
:1047900080911E0110921F0110921E01282F9091EE
:1047A000E80380919B06981741F480911E078823A7
:1047B00021F4109265070C942938822F9927909341
:1047C0001F0180931E01E0919B06FF27EE0FFF1F44
:1047D000EC5DF84F0190F081E02D80818D50482FE5
:1047E0005527642F40933C070385778116812185E7
:1047F0003327322F222780859927282B392B85E0D4
:10480000E82EF12CEE0EFF1E87E0D7011D928A954F
:10481000E9F72087232F33272783F7011582E091BB
:104820009B06FF27EE0FFF1FEC5DF84FA081B181C3
:104830004D3108F091C0872F9927982F8827212F75
:104840003327822B932B9D012B5F3F4FF9018183EF
:10485000892F9927FD018583F9010683448380917F
:10486000510190915201892B09F076C020911E01CF
:1048700085E08093540110925501B0935001A093AC
:104880004F0182E090E09093520180935101109289
:10489000570110925601645F6093530110921F01FB
:1048A00010921E018091450733278A3029F43093F6
:1048B0001F0120931E014CC010921F0110921E0177
:1048C00080919706882351F481E080939706109297
:1048D000980680911C04882341F02EC0822F9927CE
:1048E00090931F0180931E0133C010921F011092FC
:1048F0001E0180915F078F3F31F4809168078E30F1
:1049000011F00C94DB4D10921F0110921E0114C087
:104910008EE08093500707C0E0916807FF27EF5AA9
:10492000F84F8EE080838093680710921F011092E9
:104930001E0181E080931C0480912801909129013F
:104940008095909590932901809328010C942938A3
:10495000109252011092510120911E0130911F01BD
:104960008091260190912701809590959093270141
:10497000809326010C94103880911E0110921F0123
:1049800010921E01282F90919C0680917701981714
:1049900041F480919106882321F410927B010C94BC
:1049A0002938822F992790931F0180931E01E0914F
:1049B0007701FF27EE0FFF1FE256F94FE080F180ED
:1049C000D7011596FD016481F70145815527542FC4
:1049D0004427FD0181819927482B592BF701278115
:1049E0003327322F222780859927282B392BFD0149
:1049F00086818701085F1F4FF7012087232F332708
:104A0000F8012183F70183874683452F5527478384
:104A100082E18483158290911E0110921F011092F1
:104A20001E0180914501292F3327833029F03093CF
:104A30001F0120931E0161C1D7019A9685E08093E2
:104A40004501F0928C06E0928B0680915F018F5FAA
:104A500080935F01F701838330931F0120931E0130
:104A6000635F61939F01F701818199278072907044
:104A70008183892F9927F9018183F7018181992702
:104A8000816498688183892F9927F9018183209116
:104A9000390130913A0180911E01992790931F01AD
:104AA00080931E01F7012087232F3327F8012183EC
:104AB0008FE3F7018287FD01148211821282F701D0
:104AC00010AA17A6A0918B06B0918C0680911E01AA
:104AD00010921F0110921E018E8380911C079091ED
:104AE0001D07019741F0FE818F2F992790931F0199
:104AF00080931E0102C1B0936707A09366074C9193
:104B0000552741505040BD0180E093E20E948551FD
:104B10008091032390910423909393218093922179
:104B20008091702290917122807719F0803109F084
:104B300041C0109203201092022080910022909197
:104B400001228B7F9070909301228093002283E05A
:104B500090E090931D0780931C078BE99CE0909355
:104B600079018093780120911E0130911F011092EC
:104B70001F0110921E01809157078F3FA1F4809171
:104B80006807863011F00C94E34D0DC086E08093E9
:104B9000500707C0E0916807FF27EF5AF84F86E0FB
:104BA000808380936807822F992790931F018093B9
:104BB0001E0194C082E090E090931D0780931C0733
:104BC00020911E0130911F01A1963FAF2EAFA197FA
:104BD00010921F0110921E012090E0033090E1031B
:104BE0004090E2035090E3036624772488245EE437
:104BF000A52E43E8B42ECC24DD24EE24FF2400E0CF
:104C000010E0222D332D442D552D662D772D882D26
:104C100090E00E94874F2F83388749875A876B8798
:104C20007C878D879E87822E932EA42EB52E2401FD
:104C3000350100E20E948550A22EB32EC42ED52E3F
:104C4000D301C201B695A795979587958A0D9B1DAF
:104C5000AC1DBD1DB7FF04C0BF770196A11DB11DDE
:104C60008093E0039093E103A093E203B093E30306
:104C7000A0963FADA097432F55278F719070019656
:104C800020EF30E0BC01629FC001639F900D729FD6
:104C9000900D1124909379018093780110921F0157
:104CA00010921E01809158078F3FA1F480916807F0
:104CB000873011F00C94EB4D0DC087E080935007C6
:104CC00007C0E0916807FF27EF5AF84F87E080831D
:104CD0008093680750931F0140931E0180912A0121
:104CE00090912B018095909590932B0180932A01B0
:104CF0007E81872F99270C94BC3820911E0130911A
:104D00001F018091260190912701809590959093A5
:104D10002701809326016AC7E0901E01F0901F01D1
:104D200010921F0110921E0180919F229091A0224B
:104D30008139910509F058C18FE790E090931422D2
:104D4000809313224FEF50E050932422409323226C
:104D500081EE90E0909326228093252222EA30E093
:104D6000309329222093282289E690E090932B22E9
:104D700080932A2230932C2220932B2287ED90E0DF
:104D80009093322280933122909333228093322267
:104D90008FEE90E0909334228093332287EF90E05F
:104DA00090933B2280933A2287E790E090933C22B5
:104DB00080933B2288E890E090933D2280933C22B0
:104DC0008FE390E090933F2280933E2250936322A2
:104DD0004093622210926E2210926D2210927022E5
:104DE00010926F228FED90E0909374228093732243
:104DF0008EE990E090937A2280937922ECE6F0E0BD
:104E0000F0938A22E093892281E090E090938B22B4
:104E100080938A2222E230E030938C2220938B22EE
:104E200080E890E090938D2280938C2288EA90E035
:104E300090938E2280938D228AE590E090938F222A
:104E400080938E228FE490E09093902280938F2223
:104E500062E170E0709391226093902280E590E08F
:104E600090939222809391223093932220939222C6
:104E700088E290E0909394228093932288EE90E0D1
:104E800090939522809394228BE490E090939622C5
:104E90008093952288EF90E090939A2280939922B4
:104EA00084E090E090939C2280939B228AE890E09B
:104EB00090939D2280939C2282E690E090939E2284
:104EC00080939D2289EE90E090939F2280939E2272
:104ED0008FE990E09093A1228093A0225093A22288
:104EE0004093A1228FE690E09093A3228093A22288
:104EF0007093A5226093A42284E390E09093A8226B
:104F00008093A72280E390E09093AC228093AB2221
:104F10008FEB90E09093CD228093CC228DEF90E0A8
:104F200090930D2280930C225093032240930222EF
:104F3000509304224093032250930522409304226D
:104F40005093062240930522509307224093062255
:104F5000509308224093072284E890E09093022225
:104F60008093012283E090E090939922809398228D
:104F7000F093B622E093B52289EC90E09093B122B1
:104F80008093B02240911C0150911D0110921D018F
:104F900010921C0181EF90E0909378228093772209
:104FA00080910022909101228F7390709093012242
:104FB0008093002220910C0130910D0180917E227E
:104FC00090917F228F708F30F1F32F7E30708E3072
:104FD000D1F730930D0120930C018EEF90E0909368
:104FE00078228093772299C18DEF90E090930D22E3
:104FF00080930C2280EC90E0909341228093402299
:105000002FE730E030931422209313226FEF70E0EB
:1050100070931E2260931D2202EC10E01093212257
:105020000093202281E890E0909322228093212215
:1050300070932422609323228EED90E09093262299
:105040008093252289ED90E0909327228093262259
:1050500083E890E090932822809327228BE890E0C9
:105060009093292280932822A0EEB0E0B0932B22C7
:10507000A0932A2280E290E090932C2280932B220E
:105080008EEC90E09093302280932F2288ED90E078
:10509000909331228093302287EE90E090933222D9
:1050A0008093312290933322809332228FEE90E0CE
:1050B000909334228093332286EF90E090933B22AA
:1050C00080933A2287E790E090933C2280933B22A2
:1050D00088E890E090933D2280933C228FE390E01B
:1050E00090933F2280933E22EFE6F0E0F0938A22F5
:1050F000E09389228AE090E090938B2280938A2229
:1051000082E390E090938C2280938B2288EE90E053
:1051100090938E2280938D228AEF90E090938F223D
:1051200080938E223093902220938F2242E150E090
:10513000509391224093902280E790E090939222A6
:105140008093912250939322409392228AE290E09E
:10515000909394228093932288EF90E090939522ED
:10516000809394228FE490E09093962280939522EE
:1051700081E090E090939C2280939B222FE930E085
:1051800030939D2220939C2288E790E090939E226A
:1051900080939D22B0939F22A0939E223093A122C0
:1051A0002093A0227093A2226093A122F093A322C5
:1051B000E093A2225093A5224093A42281E190E0A3
:1051C0009093A8228093A72280E390E09093AC2252
:1051D0008093AB2280910022909101228F77907072
:1051E0009093012280930022709303226093022205
:1051F0007093042260930322709307226093062227
:10520000709308226093072284E890E09093022232
:10521000809301221093C1220093C02287EF90E077
:1052200090930522809304227093062260930522B6
:105230008CE190E09093B6228093B52286E090E0D6
:1052400090939822809397221092992210929822FC
:1052500085EC90E09093B1228093B02284E090E0BE
:105260000097F1F78FEF90E09093C1228093C022D6
:1052700088E090E09093B6228093B52289EC90E08C
:105280009093B1228093B0221092062210920522B0
:1052900040911C0150911D0110921D0110921C01A2
:1052A00081EF90E090937822809377228091002282
:1052B000909101228F73907090930122809300222D
:1052C00020910C0130910D0180917E2290917F22DE
:1052D0008F708F30F1F32F7E30708E30D1F7309396
:1052E0000D0120930C018EEF90E090937822809333
:1052F00077228FEF90E09093632280936222109246
:105300006E2210926D221092702210926F228BE703
:1053100090E09093C5228093C422842F9927909384
:105320001D0180931C0186E190E09093922180936F
:10533000912110928320109282201092822010924C
:1053400081201092032010920220109202201092CD
:1053500001208091C0229091C12281608F7E909324
:10536000C1228093C02280910D2290910E228F70D5
:10537000907090930E2280930D22209132012B3158
:1053800010F08AE103C02B3020F48BE080933201CF
:1053900002C02093320180919F229091A0228139F6
:1053A000910509F0E1C0223109F467C02331A0F46E
:1053B0002E3009F442C02F3040F42C3071F12D30E2
:1053C000A0F52B3009F0A1C020C0203109F445C060
:1053D000213108F04AC039C0263109F468C02731AC
:1053E00038F4243109F451C0253108F057C08DC07C
:1053F000283109F46EC0283108F462C0293109F45B
:1054000071C02A3109F081C076C082E290E09093A9
:105410008C2280938B2236E07FC082E290E09093D2
:105420008C2280938B223CE037C082E290E0909304
:105430008C2280938B2232E138C082E290E09093FC
:105440008C2280938B2239E139C082E290E09093E4
:105450008C2280938B223BEB3AC082E290E09093C7
:105460008C2280938B2231EC3BC082E290E09093BF
:105470008C2280938B2237EC3CC082E290E09093A8
:105480008C2280938B2232E319C082E290E09093C9
:105490008C2280938B223EE320E83FC082E290E0A2
:1054A00090938C2280938B2234E420EC36C082E2ED
:1054B00090E090938C2280938B223BE420E02DC0DF
:1054C00082E290E090938C2280938B223DEE20E448
:1054D0001AC082E290E090938C2280938B2233EF6B
:1054E00020E811C082E290E090938C2280938B227E
:1054F00039EF20EC08C08BE290E090938C228093EF
:105500008B2230E020E083E009C082E290E09093BB
:105510008C2280938B2238E320E482E099279093B9
:10552000812280938022832F9927909387228093D2
:105530008622822F992790938822809387224CEE8F
:1055400050E050938A224093892220E030E08091FD
:105550008A2290918B2286FD77C12F5F3F4F80E199
:1055600020303807D1F7EDCF109205221092042297
:105570008FEF90E0909306228093052210920722ED
:10558000109206229093082280930722223109F478
:105590008BC02331A0F42E3009F451C02F3040F4D9
:1055A0002C3099F12D30F0F52B3009F0F4C020C0EB
:1055B000203109F45EC0213108F069C04DC02631A8
:1055C00009F4A5C0273138F4243109F486C0253107
:1055D00008F090C076C0283109F4B4C0283108F42E
:1055E000A4C0293109F4BBC02A3109F0D4C0C5C018
:1055F000809180229091812280739070826090933C
:1056000081228093802236E0D9C0809180229091BF
:105610008122807390708260909381228093802297
:105620003CE033C080918022909181228073907001
:105630008260909381228093802232E19CC080918D
:105640008022909181228073907082609093812259
:105650008093802239E167C08091802290918122DD
:1056600080739070836090938122809380223BEBC3
:10567000A5C0809180229091812280739070836078
:10568000909381228093802231EC20E898C0809111
:105690008022909181228073907083609093812208
:1056A0008093802237EC67C0809180229091812284
:1056B000807390708260909381228093802232E385
:1056C00032C080918022909181228073907082609C
:1056D000909381228093802270C08091802290914B
:1056E00081228073907082609093812280938022C7
:1056F0003EE3CBCF80918022909181228073907085
:105700008260909381228093802234E434C080911F
:105710008022909181228073907082609093812288
:10572000809380223BE420E04AC0809180229091C7
:105730008122807390708360909381228093802275
:105740003DEE3CC0809180229091812280739070C8
:105750008360909381228093802233EF96CF809153
:105760008022909181228073907083609093812237
:105770008093802239EF20EC22C08091802290918A
:105780008122807390708360909381228093802225
:1057900030E020E00FC080918022909181228073C0
:1057A0009070826090938122809380222A3129F424
:1057B00038E320E48BE390E004C038E320E482E3A4
:1057C00090E090938C2280938B2280918122909103
:1057D0008222817090709093822280938122832F05
:1057E00099279093872280938622822F99279093DE
:1057F0008822809387224FEE50E050938A22409374
:10580000892220E030E080918A2290918B2286FDCF
:1058100007C02F5F3F4F90E120303907D1F7EDCF20
:1058200087EF90E090930522809304228FEF90E021
:10583000909306228093052290930722809306225C
:105840009093082280930722809133019091340134
:10585000282F33273093592120935821892F9927B6
:1058600090935A21809359212091390130913A0126
:1058700080911E01992790931F0180931E01309300
:10588000420720934107822F992790935B218093B1
:105890005A21232F332730935C2120935B212091C1
:1058A000460180919F229091A022332744275527BB
:1058B0008139910509F07FC0F9012331310508F0E4
:1058C00017C1EC56FF4FEE0FFF1F0590F491E02D2E
:1058D000099486E990E002C082E990E09093A122C9
:1058E0008093A02288EF90E00BC180E990E07BC01C
:1058F0008CE190E09093A1228093A02289EF90E028
:10590000FFC08AE190E0F6C08BE190E09093A12285
:105910008093A02286EE90E0F3C088E190E090931F
:10592000A1228093A0228EEE90E0EAC088E190E070
:1059300017C087E190E002C086E190E09093A12239
:105940008093A02285EE90E0DBC083E190E090930D
:10595000A1228093A02284EE90E0D2C082E190E068
:105960009093A1228093A02287EE90E0C9C082E1AB
:1059700090E09093A1228093A02281EE90E0C0C09D
:1059800081E190E081C081E190E09093A122809339
:10599000A02281EE90E08DC083E190E09093A1225F
:1059A0008093A02284EE90E09093A2228093A12283
:1059B00088E190E0ABC0F9012331310508F098C0CF
:1059C000E955FF4FEE0FFF1F0590F491E02D09946C
:1059D0008FE990E09093A1228093A02285EF90E040
:1059E0008FC08DE990E09093A1228093A02280EF58
:1059F00090E086C08FE990E002C085E990E0909346
:105A0000A1228093A0228DEE90E07AC08FE190E0F9
:105A10009093A1228093A02283EF90E071C08FE148
:105A200090E09093A1228093A0228CEE90E068C039
:105A30008EE190E09093A1228093A0228AEE90E0E4
:105A40005FC08CE190E09093A1228093A02289EE28
:105A500090E056C08EE190E002C088E190E0909323
:105A6000A1228093A02283EE90E04AC088E190E0DA
:105A700002C083E190E09093A1228093A02282EE65
:105A800090E03EC082E190E09093A1228093A0221A
:105A900082EE90E09093A2228093A1228EE690E085
:105AA00035C081E190E09093A1228093A02282EE04
:105AB00090E09093A2228093A1228DE690E026C0F0
:105AC0008FE990E09093A1228093A0228FEF90E045
:105AD00008C088E190E09093A1228093A02287EEF5
