:03000000024E911C
:104E9100787FE4F6D8FD750810750900758109025F
:024EA1004EDEE3
:10504500420647000941001C004100770041063C2B
:105055000C42032900124106570041065500440041
:1050650023000000004400530001FFFF42006400DC
:10507500014106560041063E00410368FF410076A6
:105085000046001D0105CE0106014302FE0105CEC5
:105095004300010000004102DC0041032E004100F5
:1050A50070004102F20041007500410369004103AF
:1050B5000400410063004300280000004100270070
:0850C50041063A004100000021
:038B4F00C2AF2290
:1088B800A2AFE433FF900665EFF0128B4F90066588
:0288C800E0FFCF
:0188CA00228B
:1088DC00900666EFF0900666E0FFEF24FF92AF2261
:0664D40090FFFF120D0312
:1064DA00850883850982E4F0850883850982E0FFBF
:1064EA00EFC394145020850883850982E0FF74DD88
:1064FA002FF582E43402F58374FFF0850883850959
:10650A0082E004F080D290065874FFF09000627422
:02651A00FFF090
:07651C00900001120D0322A3
:04003E001264D42252
:01001A0022C3
:1074E40090FFFF120D03EDF090FFFF120D03EFF07C
:1074F400850883850982A3E0FF850883850982E0E6
:10750400FEEEB5070A850883850982E0FF80027FC5
:0875140001900002120D032298
:0689F1004389117F002202
:05001E00D28CD28E22FD
:048A030012001E221D
:038B5200D2A92283
:048A0700128B52225A
:1077E60090FFFE120D03EEF0A3EFF08508838509E6
:1077F60082E0FEA3E0FFEEFF7E008F8C8508838586
:107806000982E0FEA3E0FFEF54FFF58A9000021222
:037816000D03223D
:1083670090FFFE120D03EEF0A3EFF0850883850959
:1083770082E0FEA3E0FF1277E6900002120D0322CF
:1088EC007E007F00128367128A07128A037F0022A0
:06751C0090FFFF120D03B9
:107522001288EC850883850982EFF01289F1AD0794
:10753200850883850982E0FF1274E4850883850942
:0B75420082EFF0850883850982E0FFDE
:07754D00900001120D032262
:1057BA0043D21053D2F79022C374FFF043A88A430E
:1057CA00E81143B80043F8009022F0E4F09022F286
:1057DA00743FF09022F374F4F09022F47471F09014
:1057EA0022F5E4F090229FE0FFEFB496139022F1A5
:1057FA0074E8F09022F6E4F09022F77480F08011B9
:10580A009022F174ECF09022F67480F09022F7E482
:0B581A00F09022F874C2F012751C22FE
:038B5500D2972292
:048A0B00128B552253
:048A0F00128A0B229A
:048A1300128A0F2292
:038B5800D2962290
:048A1700128B582244
:048A1B00128A172282
:048A1F00128A1B227A
:038B5B00D295228E
:048A2300128B5B2235
:048A2700128A23226A
:048A2B00128A272262
:048A2F0053B27F229D
:048A3300128A2F2252
:048A3700128A33224A
:048A3B00128A372242
:048A3F0053B2BF224D
:048A4300128A3F2232
:048A4700128A43222A
:048A4B00128A472222
:048A4F0053B2DF221D
:048A5300128A4F2212
:048A5700128A53220A
:048A5B00128A572202
:10002600128A5B128A4B128A3B128A2B128A1F1281
:050036008A137F002287
:0675540090FFFF120D0381
:10755A00120026850883850982EFF01257BAAD0713
:10756A00850883850982E0FF1274E485088385090A
:0B757A0082EFF0850883850982E0FFA6
:07758500900001120D03222A
:0C000E00900634E4F0A3740CF07F002294
:0683870090FFFF120D0340
:10838D0012000E850883850982EFF0850883850923
:03839D0082E0FF7C
:0783A000900001120D032201
:06690D0090FFFF120D03D4
:10691300128387850883850982EFF0127554AD07CA
:10692300850883850982E0FF1274E485088385095D
:1069330082EFF0850883850982E0FFEF600A85080E
:0D69430083850982E0FF800512001A7F00A5
:07695000900001120D03226B
:0683A70090FFFF120D0320
:1083AD0012690D850883850982EFF085088385099B
:0383BD0082E0FF5C
:0783C000900001120D0322E1
:0683C70090FFFF120D0300
:1083CD00126C7C850883850982EFF0850883850909
:0383DD0082E0FF3C
:0783E000900001120D0322C1
:106A350090FFFD120D03EBF0A3EAF0A3E9F090FF40
:046A4500FD120D032E
:106A4900900003120D27E0FBA3E0FAA3E0F9850803
:106A590083850982EBF0A3EAF0A3E9F08508838531
:0E6A69000982E0FBA3E0FAA3E0F9120911FF95
:076A7700900006120D03223E
:107B430090FFFD120D03EBF0A3EAF0A3E9F0850823
:107B530083850982E0FBA3E0FAA3E0F9E92405F9B0
:0B7B6300EA3400FA900003120D032228
:1061440090FFFD120D03EBF0A3EAF0A3E9F090FF3A
:04615400FD120D0328
:10615800900003120D27E0FBA3E0FAA3E0F9127BFD
:1061680043850883850982EBF0A3EAF0A3E9F0856B
:106178000883850982E0FBA3E0FAA3E0F9E9240695
:08618800F9EA3400FA126A354D
:07619000900006120D03222E
:0680E20090FFFF120D03E8
:1080E8007F001263DC850883850982EFF0850883A9
:0580F800850982E0FF94
:0780FD00900001120D0322A7
:048A5F0012800D2252
:048A6300128A5F22F2
:048A6700128A6322EA
:048A6B00128A6722E2
:048A6F00128A6B22DA
:048A7300128A6F22D2
:1048D70090FFFD120D03EBF0A3EAF0A3E9F090FFC0
:1048E700FF120D03EFF090FFFF120D03900005126A
:0C48F7000D27E0FFEF6005128A73807946
:104903001288B8850883850982EFF0900649E0FF95
:10491300EF75F003A42405F582E43403F583E0FB8B
:10492300A3E0FAA3E0F9C003C002C00185088385B0
:104933000982A3A3E0FBA3E0FAA3E0F9D082D0832A
:10494300D0E06B7008E965827003EA6583701F909D
:104953000649E004FFF0EFC3940C4005900649E4D8
:10496300F0900367E0FFEF6005900367E4F08508CC
:0949730083850982E0FF1288DC53
:0A497C001280E2900006120D0322E3
:106A7E0090FFFD120D03EBF0A3EAF0A3E9F090FFF7
:106A8E00FF120D03EFF0900004120D27E0FF90FFB0
:106A9E00FF120D03EFF0850883850982A3A3E0FBA7
:106AAE00A3E0FAA3E0F9850883850982A3E0FF122B
:096ABE0048D7900005120D0322D7
:105DC00090FFFF120D03EDF090FFFD120D03EBF0BD
:105DD000A3EAF0A3E9F0900003120D27E0FF90FF83
:105DE000FF120D03EFF0850883850982A3E0FBA372
:105DF000E0FAA3E0F9C003C002C001850883850969
:105E000082A3E0FBA3E0FAA3E0F9126144D001D041
:0D5E100002D003126A7E900004120D0322DE
:1086BF0090FFFD120D03EBF0A3EAF0A3E9F090FF9A
:0D86CF00FF120D03EFF0900005120D0322C5
:10525A0090FFFD120D03EBF0A3EAF0A3E9F090FF33
:10526A00FF120D03EFF0850883850982E0FFEF1234
:10527A000CA35283000000529F900004120D27E0F5
:10528A00FD850883850982A3E0FBA3E0FAA3E0F980
:10529A00125DC0802C900004120D27E0FF90FFFFE2
:1052AA00120D03EFF0850883850982A3A3E0FBA30F
:1052BA00E0FAA3E0F9850883850982A3E0FF128654
:0852CA00BF900005120D032244
:0658250090FFFE120D03CE
:05582B009002DCE4F036
:105830001288B8850883850982A3EFF09002F2E010
:10584000FF850883850982EFF0850883850982A397
:05585000E0FF1288DCFE
:10585500900075E0FFEF6009850883850982740370
:10586500F0850883850982E0FF90FFFF120D03EFA5
:10587500F0900001E0FBA3E0FAA3E0F9900369E0F2
:04588500FF12525A62
:07588900900002120D032242
:1070680090FFFF120D03EFF0850883850982E0FF8A
:1070780074DD2FF582E43402F583E0FFEFB4FF11ED
:10708800850883850982E0FF900062E0FEEEB5077F
:0E709800047F0180027F00900001120D032290
:1056730090FFFF120D03EFF0850883850982E0FF99
:10568300127068EF704F900658E0FFEFB4FF1C856F
:105693000883850982E0FF900658EFF0850883852B
:1056A3000982E0FF900062EFF08026850883850978
:1056B30082E0FF900062E0FE74DD2EF582E43402A6
:1056C300F583EFF0850883850982E0FF900062EFA0
:0E56D300F07F0180027F00900001120D032283
:10758C0090FFFF120D03EFF0850883850982E0FF61
:10759C00EF601090063EE0FFEF54FBFF90063EEFCD
:1075AC00F0800E90063EE0FFEF54FDFF90063EEF9C
:0875BC00F0900001120D032202
:048A7700128A6F22CE
:0681040090FFFF120D03C5
:10810A007F011263DC850883850982EFF085088385
:05811A00850982E0FF71
:07811F00900001120D032284
:1039A20090FFFD120D03EBF0A3EAF0A3E9F090FF04
:0C39B200FF120D03EFF090FFFB120D035D
:1039BE00900006120D27E0FBA3E0FAA3E0F98508BC
:1039CE0083850982EBF0A3EAF0A3E9F090000312DD
:0439DE000D27E4F0DD
:1039E2001288B8900004120D27EFF0900072E0FFE9
:1039F200EF6003023A8C900003120D277401F090DD
:103A0200032DE0FFEF75F003A4242BF582E43400CC
:103A1200F583E0FBA3E0FAA3E0F985088385098238
:103A2200EBF0A3EAF0A3E9F0900006120D27E0FB09
:103A3200A3E0FAA3E0F990032DE0FFEF75F003A4F1
:103A4200242BF582E43400F583EBF0A3EAF0A3E93A
:103A5200F090032DE004FFF0EFC3940C40059003B7
:103A62002DE4F090032FE0FF90032DE0FEEEB5076A
:103A7200069000727401F09002F3E0FFEF700E12F4
:103A820081049002F37401F08003128A779000049B
:083A9200120D27E0FF1288DC91
:0E3A9A00850883850982E0FBA3E0FAA3E0F92A
:073AA80090000D120D032236
:1050CE0090FFFD120D03EBF0A3EAF0A3E9F090FFC1
:0C50DE00FF120D03EFF090FFFD120D0318
:1050EA0090000A120D27E0FF90FFFF120D03EFF068
:1050FA00900008120D27E0FBA3E0FAA3E0F990FF65
:10510A00FD120D03EBF0A3EAF0A3E9F090000812F8
:10511A000D27E0FBA3E0FAA3E0F9900007120D27A0
:10512A00E0FF1239A2850883850982EBF0A3EAF031
:10513A00A3E9F0850883850982E0FBA3E0FAA3E0EE
:01514A00F96B
:07514B0090000B120D03227E
:1052D20090FFFD120D03EBF0A3EAF0A3E9F09000BA
:1052E20006120D27E0FF90FFFF120D03EFF0850875
:1052F20083850982A3E0FBA3E0FAA3E0F9E9240C89
:10530200F9EA3400FA90FFFD120D03EBF0A3EAF084
:10531200A3E9F0900004120D27E0FBA3E0FAA3E05A
:10532200F9C003C002C001900004120D27E0FBA3E4
:10533200E0FAA3E0F9126144D001D002D003125086
:08534200CE900007120D0322BA
:107AEB0090FFFD120D03EBF0A3EAF0A3E9F090FF7A
:107AFB00FF120D03EFF0850883850982A3E0FBA33A
:0C7B0B00E0FAA3E0F9900008120D03223C
:10419D0090FFFD120D03EBF0A3EAF0A3E9F090FF01
:0C41AD00FF120D03EFF090FFFD120D0358
:1041B900900003120D27E0FFEF120CA341CC000081
:1041C90000421990000A120D27E0FF90FFFF120D1F
:1041D90003EFF0900008120D27E0FBA3E0FAA3E03B
:1041E900F990FFFD120D03EBF0A3EAF0A3E9F090BB
:1041F9000008120D27E0FBA3E0FAA3E0F91252D25E
:10420900850883850982EBF0A3EAF0A3E9F08053DE
:1042190090000A120D27E0FF90FFFF120D03EFF047
:10422900900008120D27E0FBA3E0FAA3E0F990FF44
:10423900FD120D03EBF0A3EAF0A3E9F090000812D8
:104249000D27E0FBA3E0FAA3E0F9900007120D2780
:10425900E0FF127AEB850883850982EBF0A3EAF087
:10426900A3E9F0850883850982E0FBA3E0FAA3E0CE
:01427900F94B
:07427A0090000B120D03225E
:107C1A0090FFFF120D03EDF090FFFD120D03EBF044
:107C2A00A3EAF0A3E9F0900003120D27E0FFC3EFE7
:0A7C3A009407FF900004120D0322CE
:1086070090FFFD120D03EBF0A3EAF0A3E9F090FF52
:0F861700FF120D03EFF07F00900005120D0322FC
:104CD00090FFFD120D03EBF0A3EAF0A3E9F090FFC3
:0C4CE000FF120D03EFF090FFFF120D0318
:104CEC00850883850982A3E0FFEF120CA34D000019
:104CFC0000004D25900005120D27E0FD85088385E9
:104D0C000982A3A3E0FBA3E0FAA3E0F9127C1A85C5
:104D1C000883850982EFF08033900005120D27E09F
:104D2C00FF90FFFF120D03EFF0900003120D27E030
:104D3C00FBA3E0FAA3E0F9850883850982A3A3E02D
:104D4C00FF128607850883850982EFF08508838525
:044D5C000982E0FFE9
:074D6000900006120D032272
:038B5E007F05226E
:1088CB0090FFFF120D03EFF07F00900001120D03DC
:0188DB00227A
:0E64820090FFFF120D03EFF090FFFF120D03CD
:10649000850883850982A3E0FFEF120CA364A400A2
:1064A000000064B1128B5E850883850982EFF0805D
:1064B00014850883850982A3E0FF1288CB850883B1
:0D64C000850982EFF0850883850982E0FFE1
:0764CD00900002120D0322F2
:06337C0090FFF9120D03A1
:103382001288B8900006120D27EFF0900063E0FF5C
:10339200850883850982EFF0900028E0FBA3E0FA1C
:1033A200A3E0F9850883850982A3EBF0A3EAF0A3E1
:1033B200E9F0900027E0FF900004120D27EFF09053
:1033C2000642E0FF900005120D27EFF09000061272
:0733D2000D27E0FF1288DC6B
:1033D900900004120D27C083C082E0FFC007850852
:1033E90083850982E0FF126482AE07D007C3EF9E8E
:1033F900FFD082D083EFF0900004120D27E0FF90F8
:10340900FFFF120D03EFF0850883850982A3A3E06E
:10341900FBA3E0FAA3E0F9850883850982A3E0FF0D
:10342900124CD0900004120D27EFF0900004120DF9
:1034390027E0FF90FFFF120D03EFF0850883850950
:1034490082A3A3E0FBA3E0FAA3E0F990FFFD120D2C
:1034590003EBF0A3EAF0A3E9F0900005120D27E0D1
:10346900FBA3E0FAA3E0F9900004120D27E0FF1294
:10347900419D850883850982A3EBF0A3EAF0A3E9BE
:01348900F052
:10348A001288B8900006120D27EFF0850883850987
:10349A0082A3E0FBA3E0FAA3E0F9900005120D274E
:1034AA00E0FFEF75F003A4241DF582E43400F583F0
:1034BA00EBF0A3EAF0A3E9F0900005120D27E0FF74
:1034CA0012758C900304E4F0900006120D27E0FFB9
:0334DA001288DC79
:0734DD00900007120D03220D
:0F891C0090FFFF120D03EFF0900001120D0322E8
:1087140090FFFF120D03EFF0850883850982E0FFC7
:0A87240012891C900001120D0322BF
:06787F0090FFFF120D0353
:107885001288B8850883850982EFF0902511E0FFFD
:10789500EF54FEFFEFF0C2AE850883850982E0FF55
:0378A5001288DC6A
:0978A8007F00900001120D032283
:0683E70090FFFF120D03E0
:1083ED0012787F850883850982EFF08508838509DA
:0383FD0082E0FF1C
:07840000900001120D0322A0
:0678B10090FFFF120D0321
:1078B7001288B8850883850982EFF0902511E0FFCB
:1078C700EF54FDFFEFF0C2AE850883850982E0FF24
:0378D7001288DC38
:0978DA007F00900001120D032251
:0684070090FFFF120D03BF
:10840D001278B1850883850982EFF0850883850987
:03841D0082E0FFFB
:07842000900001120D032280
:0989BF001284071283E77F0022F5
:0684270090FFFF120D039F
:10842D001289BF850883850982EFF0850883850948
:03843D0082E0FFDB
:07844000900001120D032260
:0989C8001284277F00128714229B
:048A7B001289C82272
:0681260090FFFF120D03A3
:10812C007F111263DC850883850982EFF085088353
:05813C00850982E0FF4F
:07814100900001120D032262
:048A7F001281262218
:048A8300128A7F22B2
:048A8700128A8322AA
:1086260090FFFF120D03EFF0850883850982E0FFB6
:0F863600EF7005900367E4F0900001120D03222E
:10872E0090FFFF120D03EFF0850883850982E0FFAD
:0A873E00128626900001120D03229E
:0678E30090FFFF120D03EF
:1078E9001288B8850883850982EFF0902511E0FF99
:1078F900EF4401FFEFF0D2AE850883850982E0FFEE
:037909001288DC05
:09790C007F00900001120D03221E
:0684470090FFFF120D037F
:10844D001278E3850883850982EFF0850883850915
:03845D0082E0FFBB
:07846000900001120D032240
:01004200229B
:048A8B001200422271
:06777C0090FFFF120D0357
:107782001288B8850883850982EFF0902511E0FF01
:10779200EF4402FFEFF0D2AE850883850982E0FF55
:0377A2001288DC6E
:0C77A500128A8B7F00900001120D03225D
:0684670090FFFF120D035F
:10846D0012777C850883850982EFF085088385095D
:03847D0082E0FF9B
:07848000900001120D032220
:0989D1001284671284477F002222
:0684870090FFFF120D033F
:10848D001289D1850883850982EFF08508838509D6
:03849D0082E0FF7B
:0784A000900001120D032200
:0977B10090FFFF120D0312848702
:1077BA001288B8850883850982EFF0900641E4F0C3
:1077CA00900640E4F0850883850982E0FF1288DC90
:0C77DA007F0012872E900001120D032288
:0684A70090FFFF120D031F
:1084AD00126E9E850883850982EFF0850883850904
:0384BD0082E0FF5B
:0784C000900001120D0322E0
:0681480090FFFF120D0381
:10814E007F121263DC850883850982EFF085088330
:05815E00850982E0FF2D
:07816300900001120D032240
:0E730B0090FFFF120D03EFF090FFFF120D0335
:107319001288B8850883850982EFF0850883850975
:1073290082A3E0FF9002F2EFF0850883850982E0ED
:04733900FF1288DCDB
:0A733D00128148900002120D032295
:1087480090FFFF120D03EFF0850883850982E0FF93
:0A87580012730B900001120D0322B2
:066AC70090FFFE120D031A
:106ACD001288B8850883850982A3EFF090064CE003
:106ADD00FF90064BE0FEEEB507047F0180027F00BC
:106AED00850883850982EFF0850883850982A3E0F7
:046AFD00FF1288DC20
:086B0100850883850982E0FF8D
:076B0900900002120D0322AF
:0673470090FFFF120D0390
:10734D00850883850982E4F0126AC7EF70199006EB
:10735D004CE0FF744D2FF582E43406F583E0FF8594
:0F736D000883850982EFF0850883850982E0FF98
:07737C00900001120D032235
:0660990090FFFF120D0351
:10609F00850883850982E4F090064CE0FF90064B5B
:1060AF00E0FEEE6F602B90064CE0FF744D2FF582F3
:1060BF00E43406F583E0FF850883850982EFF090CD
:1060CF00064CE004FFF0EFD39405400590064CE436
:0960DF00F0850883850982E0FFC9
:0760E800900001120D0322DC
:061E480090FFF6120D03ED
:101E4E00900003120D27E4F0900004120D27E4F029
:081E5E00900005120D27E4F0CD
:101E66001288B8900006120D27EFF09002F1E4F008
:101E7600900641E0FFEF70047F0180027F00850835
:101E860083850982EFF0900641E0FFEFB408047FF6
:101E96000180027F00850883850982A3EFF0900602
:101EA60041E0FFEFB409047F0180027F00850883CB
:101EB600850982A3A3EFF0850883850982A3E0FF45
:101EC600EF700D850883850982A3A3E0FFEF6018F4
:101ED600900641E4F090063DE0FFEF25E02411F581
:101EE60082E43400F583E4F0900006120D27E0FF4B
:031EF6001288DC73
:101EF900850883850982A3E0FFEF700D8508838536
:091F09000982A3A3E0FFEF60567A
:101F12001288B8900006120D27EFF0900645E004F3
:101F2200F0900654E0FFEFB44305126099802385D8
:101F32000883850982A3E0FFEF60047F0080027FAF
:101F420001900003120D27EFF0900004120D277488
:0D1F520001F0900006120D27E0FF1288DC60
:101F5F008508838509827401F0850883850982E0ED
:071F6F00FFEF700302208266
:101F76001288B8900007120D27EFF0900656E0FF82
:101F8600900006120D27EFF0900007120D27E0FFD4
:031F96001288DCD2
:0B1F9900900006120D27E0FFEF601F14
:101FA4001288B8900007120D27EFF0900641740ACA
:0C1FB400F0900007120D27E0FF1288DCFF
:031FC0000220827A
:101FC3001288B8900009120D27EFF0900011E0FF7E
:101FD300900007120D27EFF0900013E0FF90000828
:101FE300120D27EFF0900009120D27E0FF1288DC95
:101FF300126AC7EF7045900007120D27E0FFEF70DC
:012003003AA2
:102004001288B8900009120D27EFF09000117402A5
:10201400F0127347900012EFF09006547443F0905E
:10202400063DE4F0900005120D277401F0900009BC
:08203400120D27E0FF1288DC09
:10203C008044900008120D27E0FFEF6401600C90C3
:0B204C000008120D27E0FFEFB4022B8C
:102057001288B8900009120D27EFF09006547445C6
:10206700F090063D7401F0900005120D277401F001
:0B207700900009120D27E0FF1288DC2A
:10208200900004120D27E0FFEF600B900003120D89
:0620920027E0FF12874861
:102098001288B8900006120D27EFF0900641E0FF75
:1020A800EFB40A101268C2900006120D27E0FF1262
:0F20B80088DC8064900006120D27E0FF1288DCA0
:0B20C700900005120D27E0FFEF604EB7
:1020D2001288B8900006120D27EFF0900301E4F089
:1020E200A3E4F0900074E4F09006417401F09000D3
:0920F20006120D27E0FF1288DC44
:0620FB001284A7EF601F34
:102101001288B8900006120D27EFF090064174096D
:0C211100F0900006120D27E0FF1288DCA1
:03211D001276A394
:0721200090000A120D0322DA
:06816A0090FFFF120D035F
:108170007F101263DC850883850982EFF085088310
:05818000850982E0FF0B
:07818500900001120D03221E
:06818C0090FFFF120D033D
:108192007F0E1263DC850883850982EFF0850883F0
:0581A200850982E0FFE9
:0781A700900001120D0322FC
:106F250090FFFC120D03120C66850883850982E02B
:106F3500FCA3E0FDA3E0FEA3E0FF900009120C66B0
:106F4500900004120D27E0FCA3E0FDA3E0FEA3E002
:106F5500FF9002F6120C66122127900008120D030D
:016F65002209
:1070A60090FFFC120D03120C66900004120D27E0EF
:1070B600FCA3E0FDA3E0FEA3E0FF90FFFC120D039E
:1070C600120C66900004120D27E0FCA3E0FDA3E07D
:0E70D600FEA3E0FF126F25900008120D0322AA
:105C9C0090FFFC120D03120C66900004120D27E00D
:105CAC00FCA3E0FDA3E0FEA3E0FF900636120C6619
:105CBC00900008120D27E0FF90000DEFF09000040B
:105CCC00120D27E0FCA3E0FDA3E0FEA3E0FF90FF94
:105CDC00FC120D03120C66900004120D27E0FCA3BD
:105CEC00E0FDA3E0FEA3E0FF1270A6900009120DE8
:025CFC00032281
:0F5BD60090FFFC120D03120C6690FFFF120D03DF
:105BE5001288B8850883850982EFF090FFFF120DB2
:105BF500037401F0900006120D27E0FCA3E0FDA35D
:105C0500E0FEA3E0FF90FFFC120D03120C6690006E
:105C150006120D27E0FCA3E0FDA3E0FEA3E0FF12C2
:0D5C25005C9C850883850982E0FF1288DC05
:075C3200900009120D03228E
:1070E40090FFFC120D03120C66900004120D27E0B1
:1070F400FCA3E0FDA3E0FEA3E0FF90FFFC120D0360
:10710400120C66900004120D27E0FCA3E0FDA3E03E
:0E711400FEA3E0FF125BD6900008120D0322CE
:038B6100C2AB2282
:048A8F00128B6122C3
:048A9300128A8F2292
:048A9700128A93228A
:048A9B00128A972282
:048A9F00128A9B227A
:067D8A0090FFFF120D0343
:107D90001288B8850883850982EFF0128A9F8508CA
:097DA00083850982E0FF1288DCF2
:077DA900900001120D0322FE
:048AA300127D8A2294
:067C440090FFFC120D038D
:107C4A00127028850883850982120C668508838547
:0D7C5A000982E0FCA3E0FDA3E0FEA3E0FF33
:077C6700900004120D03223E
:0625BF0090FFEA120D037B
:1025C500127C44850883850982120C6690000412EA
:1025D5000D27120C727FFFFFFF900008120D27E4F4
:1025E500F0128AA3900009120D27E4F0A3E4F090FD
:1025F5000009120D27E0FEA3E0FFC3EF9401EE945E
:062605000040030227491A
:10260B00900009120D27E0FEA3E0FF7C007D09126C
:10261B00098B74572FF974003EFA7B0190000B1253
:10262B000D27EBF0A3EAF0A3E9F090000B120D27B6
:10263B00E0FBA3E0FAA3E0F97582087583001209A9
:0D264B002AFFEFC313FFEF20E00302273941
:1026580090000B120D27E0FBA3E0FAA3E0F9120C9F
:1026680016850883850982E0FCA3E0FDA3E0FEA3AC
:10267800E0FFC3EF9BFFEE9AFEED99FDEC98FC900E
:10268800000E120D27120C6690000B120D27E0FBAE
:10269800A3E0FAA3E0F9758204758300120BA8C0C1
:1026A80004C005C006C00790000E120D27E0FCA369
:1026B800E0FDA3E0FEA3E0FFAB07AA06A905A80476
:1026C800A804A905AA06AB07D007D006D005D004F0
:1026D800C3EF9BFFEE9AFEED99FDEC98FC9000127B
:1026E800120D27120C66900004120D27E0FCA3E0DF
:1026F800FDA3E0FEA3E0FF900012120D27E0F8A36F
:10270800E0F9A3E0FAA3E0FBC3120B3B50239000CF
:1027180012120D27E0FCA3E0FDA3E0FEA3E0FF906A
:102728000004120D27120C66900008120D27740180
:01273800F0B0
:10273900900009120D27E475F0011209F20225F43F
:10274900900008120D27E0FFEF60637F007E007D97
:10275900007C00900004120D27E0F8A3E0F9A3E043
:10276900FAA3E0FBD3120B3B501685088385098237
:10277900E0FCA3E0FDA3E0FEA3E0FF122D2D802ED7
:10278900900004120D27E0FCA3E0FDA3E0FEA3E006
:10279900FF90FFFC120D03120C66900004120D2726
:0E27A900E0FCA3E0FDA3E0FEA3E0FF1270E45D
:0727B700900016120D032231
:048AA700123BBC22A0
:067C6E0090FFFC120D0363
:107C7400128AA7850883850982120C668508838584
:0D7C84000982E0FCA3E0FDA3E0FEA3E0FF09
:077C9100900004120D032214
:067DB00090FFFE120D031E
:107DB6001265C1850883850982EEF0A3EFF0850878
:097DC60083850982E0FEA3E0FFC1
:077DCF00900002120D0322D7
:048AAB00127DB02266
:067DD60090FFFE120D03F8
:107DDC00128AAB850883850982EEF0A3EFF0850843
:097DEC0083850982E0FEA3E0FF9B
:077DF500900002120D0322B1
:0C898500E58830E5047F0180027F0022BD
:048AAF001289852281
:0684C70090FFFF120D03FF
:1084CD00128AAF850883850982EFF08508838509B7
:0384DD0082E0FF3B
:0784E000900001120D0322C0
:048AB3001284C72240
:0684E70090FFFF120D03DF
:1084ED00128AB3850883850982EFF0850883850993
:0384FD0082E0FF1B
:07850000900001120D03229F
:0681AE0090FFFF120D031B
:1081B4007F051263DC850883850982EFF0850883D7
:0581C400850982E0FFC7
:0781C900900001120D0322DA
:107A910090FFFF120D03EDF090FFFD120D03EBF0CF
:107AA100A3EAF0A3E9F0900003120D27E0FF900094
:0D7AB1001CEFF01281AE900004120D0322B4
:1076DA0090FFFF120D03EDF090FFFD120D03EBF08A
:1076EA00A3EAF0A3E9F0900003120D27E0FD850854
:1076FA0083850982E0FBA3E0FAA3E0F9127A91906C
:06770A000004120D032231
:107B6E0090FFFF120D03EFF090064A7401F08508A6
:107B7E0083850982E0FD900068E0FBA3E0FAA3E0B4
:0B7B8E00F91276DA900001120D0322BC
:0681D00090FFFF120D03F9
:1081D6007F071263DC850883850982EFF0850883B3
:0581E600850982E0FFA5
:0781EB00900001120D0322B8
:106D060090FFFD120D03EBF0A3EAF0A3E9F090FF6C
:046D1600FE120D0359
:106D1A00850883850982A3A3E0FBA3E0FAA3E0F92F
:106D2A00127F78850883850982EEF0A3EFF0850843
:096D3A0083850982E0FEA3E0FF5D
:076D4300900005120D032270
:0681F20090FFFF120D03D7
:1081F8007F061263DC850883850982EFF085088392
:05820800850982E0FF82
:07820D00900001120D032295
:0656E10090FFFF120D0313
:0A56E70090064AE0FFEF6401601333
:1056F1008508838509827401F0850883850982E024
:03570100FF8043E3
:105704001267E0EF701590064A7403F09002FA7481
:105714000CF0A3749BF01281F2802690064A740266
:10572400F0900068E0FBA3E0FAA3E0F9126D067CB8
:10573400007DF012098B9002FAEEF0A3EFF01281D3
:03574400D07F0013
:07574700900001120D032286
:048AB7001231FD2259
:067DFC0090FFFE120D03D2
:107E0200128AB7850883850982EEF0A3EFF0850810
:097E120083850982E0FEA3E0FF74
:077E1B00900002120D03228A
:107E220090FFFD120D03EBF0A3EAF0A3E9F0127D3F
:107E3200FC7E00EF5407FFEF2401FFEE3400FE90BA
:067E42000003120D0322F3
:106D4A0090FFFD120D03EBF0A3EAF0A3E9F090FF28
:046D5A00FE120D0315
:106D5E00850883850982A3A3E0FBA3E0FAA3E0F9EB
:106D6E00127E22850883850982EEF0A3EFF0850856
:096D7E0083850982E0FEA3E0FF19
:076D8700900005120D03222C
:0653C10090FFFD120D0338
:0B53C7001288B8850883850982EFF08A
:1053D200900068E0FBA3E0FAA3E0F9126D4A8508A9
:1053E20083850982A3EEF0A3EFF085088385098205
:1053F200A3E0FEA3E0FFEF4E6020850883850982CB
:10540200A3E0FEA3E0FF7C007DF012098B9002FA7C
:10541200EEF0A3EFF01281D0800990064A7401F0F9
:035422001256E13E
:0B542500850883850982E0FF1288DC07
:07543000900003120D03229E
:108683001267E0EF701490064A7403F09002FA74D4
:0D8693000CF0A3749BF01281F2221253C16F
:0186A00022B7
:0666AC0090FFFF120D0338
:1066B2001288B8850883850982EFF090064AE0FFC8
:1066C200EF120CA366D30266D80366E204000066EA
:1066D200E7128683800F1276347F01127B6E80056B
:1066E2007F01127B6E850883850982E0FF1288DCB8
:0766F200900001120D0322CC
:0F892B0090FFFF120D03EFF0900001120D0322D9
:1079150090FFFF120D03EFF0850883850982E0FFD4
:10792500EF120CA3793000000079351266AC800B9C
:10793500850883850982E0FF12892B900001120DCD
:0279450003221B
:0682140090FFFF120D03B4
:10821A007F0D1263DC850883850982EFF085088368
:05822A00850982E0FF60
:07822F00900001120D032273
:038B6400D2AB226F
:048ABB00128B642294
:038B6700C28F2298
:048ABF00128B67228D
:1078190090FFFE120D03EEF0A3EFF08508838509B2
:1078290082E0FEA3E0FFEEFF7E008F8D8508838551
:107839000982E0FEA3E0FFEF54FFF58B90000212EE
:037849000D03220A
:1085070090FFFE120D03EEF0A3EFF08508838509B7
:1085170082E0FEA3E0FF127819900002120D0322F9
:067E480090FFFE120D0385
:107E4E001265C1850883850982EEF0A3EFF08508DF
:097E5E0083850982E0FEA3E0FF28
:077E6700900002120D03223E
:103EC40090FFFE120D03ECF0A3EDF090FFFE120D37
:0C3ED40003EEF0A3EFF090FFFC120D03D2
:103EE000127E48850883850982EEF0A3EFF09000EA
:103EF00006120D27E0FEA3E0FF900004120D27E05C
:103F0000FCA3E0FDED2FFFEC3EFE850883850982D2
:103F1000A3A3EEF0A3EFF0850883850982E0FEA35A
:103F2000E0FFEF2402FFEE3400FE8508838509825E
:103F3000A3A3E0FCA3E0FDC3ED9FEC9E5010850819
:103F400083850982A3A3E4F0A37402F0802C850882
:103F500083850982A3A3C083C082E0FEA3E0FF851E
:103F60000883850982E0FCA3E0FDC3EF9DFFEE9C82
:103F7000FED082D083EEF0A3EFF08508838509821E
:103F8000A3A3E0FEA3E0FFC374FF9FFF74FF9EFEA8
:103F9000850883850982A3A3EEF0A3EFF08508834B
:103FA000850982A3A3E0FEA3E0FFEF24FFFFEE3428
:0B3FB000FFFE128507128ABF128ABBB9
:073FBB00900008120D032223
:1075C40090FFFE120D03ECF0A3EDF090FFFE120D00
:1075D40003EEF0A3EFF0850883850982A3A3E0FC02
:1075E400A3E0FD850883850982E0FEA3E0FF123E47
:0875F400C4900004120D0322F3
:0789E300127C44122D2D222D
:048AC3001289E3220F
:0665230090FFFC120D03C5
:106529009002F6E0FCA3E0FDA3E0FEA3E0FF9000EB
:1065390009E0F8A3E0F9A3E0FAA3E0FBEB2FFFEAF7
:106549003EFEE93DFDE83CFC850883850982120C85
:1065590066850883850982E0FCA3E0FDA3E0FEA32C
:02656900E0FF51
:07656B00900004120D032251
:067C980090FFFC120D0339
:107C9E00126523850883850982120C668508838503
:0D7CAE000982E0FCA3E0FDA3E0FEA3E0FFDF
:077CBB00900004120D0322EA
:0E61970090FFFF120D0390000DE0FFEF703B34
:1061A5001288B8850883850982EFF090FFFF120DEC
:1061B50003E4F0900636E0FCA3E0FDA3E0FEA3E0D7
:1061C500FF90FFFC120D03120C66127C98125C9C6A
:0B61D500850883850982E0FF1288DC4A
:0A61E000128AC3900001120D032281
:105CFE0090FFFF120D03EDF090FFFD120D03EBF080
:0C5D0E00A3EAF0A3E9F090FFFD120D03E2
:105D1A00900003120D27E0FBA3E0FAA3E0F985083F
:105D2A0083850982EBF0A3EAF0A3E9F0900006125A
:105D3A000D27E0FF850883850982E0FBA3E0FAA32B
:0E5D4A00E0F9EF120957900006120D27E0FF56
:075D5800900007120D032269
:105F8D0090FFFD120D03EBF0A3EAF0A3E9F090FFF3
:105F9D00FF120D03EFF0900007120D27E0FF90FFA9
:105FAD00FF120D03EFF0900005120D27E0FBA3E0AB
:105FBD00FAA3E0F990FFFD120D03EBF0A3EAF0A3B5
:105FCD00E9F0900005120D27E0FBA3E0FAA3E0F93C
:0A5FDD00123DC5900008120D0322CA
:1051520090FFFD120D03EBF0A3EAF0A3E9F090FF3C
:0C516200FF120D03EFF090FFFD120D0393
:10516E0090000A120D27E0FF90FFFF120D03EFF0E3
:10517E00900008120D27E0FBA3E0FAA3E0F990FFE0
:10518E00FD120D03EBF0A3EAF0A3E9F09000081274
:10519E000D27E0FBA3E0FAA3E0F9900007120D271C
:1051AE00E0FF125F8D850883850982EBF0A3EAF09C
:1051BE00A3E9F0850883850982E0FBA3E0FAA3E06A
:0151CE00F9E7
:0751CF0090000B120D0322FA
:105FE70090FFFD120D03EBF0A3EAF0A3E9F090FF99
:105FF700FF120D03EFF0900007120D27E0FF90FF4F
:10600700FF120D03EFF0900005120D27E0FBA3E050
:10601700FAA3E0F990FFFD120D03EBF0A3EAF0A35A
:10602700E9F0900005120D27E0FBA3E0FAA3E0F9E1
:0A603700123DC5900008120D03226F
:1051D60090FFFD120D03EBF0A3EAF0A3E9F090FFB8
:0C51E600FF120D03EFF090FFFD120D030F
:1051F20090000A120D27E0FF90FFFF120D03EFF05F
:10520200900008120D27E0FBA3E0FAA3E0F990FF5B
:10521200FD120D03EBF0A3EAF0A3E9F090000812EF
:105222000D27E0FBA3E0FAA3E0F9900007120D2797
:10523200E0FF125FE7850883850982EBF0A3EAF0BD
:10524200A3E9F0850883850982E0FBA3E0FAA3E0E5
:01525200F962
:0752530090000B120D032275
:1056040090FFFD120D03EBF0A3EAF0A3E9F090FF85
:04561400FD120D0373
:10561800900003120D27E0FBA3E0FAA3E0F9850848
:1056280083850982EBF0A3EAF0A3E9F08508838576
:105638000982E0FBA3E0FAA3E0F975820175830013
:1056480012092AFF7E00EF7F00FE85088385098204
:10565800E0FBA3E0FAA3E0F9120911FD7C00EE4C8F
:04566800FEEF4DFF05
:07566C00900006120D03225D
:1080560090FFFD120D03EBF0A3EAF0A3E9F085080B
:1080660083850982E0FBA3E0FAA3E0F990000312FE
:038076000D0322D5
:1061EA0090FFFD120D03EBF0A3EAF0A3E9F090FF94
:0461FA00FD120D0382
:1061FE00900003120D27E0FBA3E0FAA3E0F9128052
:10620E0056850883850982EBF0A3EAF0A3E9F085B1
:10621E000883850982E0FBA3E0FAA3E0F9E92406EE
:08622E00F9EA3400FA125604EB
:07623600900006120D032287
:067E6E0090FFFE120D035F
:107E7400126CC1850883850982EEF0A3EFF08508B2
:097E840083850982E0FEA3E0FF02
:077E8D00900002120D032218
:048AC700127E6E228B
:105E7A0090FFFD120D03EBF0A3EAF0A3E9F0850809
:105E8A0083850982E0FBA3E0FAA3E0F91261EAC084
:105E9A0006C007128AC7AC06AD07D007D006EF6D59
:105EAA007002EE6C6019850883850982E0FBA3E025
:105EBA00FAA3E0F91261EAEFB4FF08EEB4FF047F37
:0C5ECA000180027F00900003120D0322F3
:1040B60090FFFD120D03EBF0A3EAF0A3E9F08508EB
:1040C60083850982E0FBA3E0FAA3E0F9125E7AEFAA
:1040D6006060900006120D27E0FFEF24F3FF90FFCB
:1040E600FF120D03EFF0900004120D27E0FBA3E092
:1040F600FAA3E0F990FFFD120D03EBF0A3EAF0A39B
:10410600E9F0900004120D27E0FBA3E0FAA3E0F922
:10411600C003C002C001900004120D27E0FBA3E01B
:10412600FAA3E0F912642FD001D002D0031251D6BF
:10413600805E900006120D27E0FFEF24F3FF90FF4C
:10414600FF120D03EFF0900004120D27E0FBA3E031
:10415600FAA3E0F990FFFD120D03EBF0A3EAF0A33A
:10416600E9F0900004120D27E0FBA3E0FAA3E0F9C2
:10417600C003C002C001900004120D27E0FBA3E0BB
:10418600FAA3E0F912642FD001D002D003125152E3
:07419600900007120D032247
:1054370090FFFD120D03EBF0A3EAF0A3E9F090FF54
:04544700FD120D0342
:10544B00900009120D27E0FF90FFFF120D03EFF004
:10545B00900007120D27E0FBA3E0FAA3E0F990FF01
:10546B00FD120D03EBF0A3EAF0A3E9F09000071295
:10547B000D27E0FBA3E0FAA3E0F91240B685088301
:10548B00850982EBF0A3EAF0A3E9F085088385098F
:09549B0082E0FBA3E0FAA3E0F9B2
:0754A40090000A120D032223
:0E44370090FFFF120D03EFF090FFFD120D033A
:10444500900003120D27E0FFD3EF64809480400EA7
:10445500850883850982A3A3746EF00244F7900052
:1044650003120D27E0FFD3EF6480941C4079900080
:1044750003120D27E0FFEF3395E0FEEF2464FFEE16
:104485003400FE850883850982EEF0A3EFF08508E8
:1044950083850982C083C082E0FEA3E0FF7C007DA6
:1044A5003C12098BD082D083EEF0A3EFF085088310
:1044B500850982C083C082E0FEA3E0FF7C007D64A5
:1044C50012099DD082D083EEF0A3EFF08508838595
:1044D5000982E0FEA3E0FFEF2432FF85088385090A
:1044E50082A3A3EFF0800B850883850982A3A374BB
:0C44F50032F0850883850982A3A3E0FF54
:07450100900004120D0322DB
:107B990090FFFD120D03EBF0A3EAF0A3E9F08508CD
:107BA90083850982E0FBA3E0FAA3E0F9E9242AF935
:0B7BB900EA3400FA900003120D0322D2
:1080790090FFFD120D03EBF0A3EAF0A3E9F08508E8
:1080890083850982E0FBA3E0FAA3E0F990000312DB
:038099000D0322B2
:0637640090FFF5120D03B9
:10376A0090006DE0FBA3E0FAA3E0F91280798508E6
:10377A0083850982EBF0A3EAF0A3E9F090006DE0FB
:10378A00FBA3E0FAA3E0F9127B99900003120D273C
:10379A00EBF0A3EAF0A3E9F0850883850982E0FB50
:1037AA00A3E0FAA3E0F9900006120D27EBF0A3EAD2
:1037BA00F0A3E9F0900006120D27E0FBA3E0FAA3BC
:1037CA00E0F9120911FF900009120D27EFF090227B
:1037DA0075E0FF90000A120D27EFF090000A120D13
:1037EA0027E0FFEF242DFD900003120D27E0FBA335
:1037FA00E0FAA3E0F9E92401F9EA3400FA125CFEDE
:10380A0090000A120D27E0FF124437AD079000031B
:10381A00120D27E0FBA3E0FAA3E0F9E92402F9EA92
:10382A003400FA125CFE900009120D27E0FF90FFA7
:10383A00FF120D03EFF090006DE0FBA3E0FAA3E0A6
:10384A00F9E9240CF9EA3400FA90FFFD120D03EBB2
:10385A00F0A3EAF0A3E9F090006DE0FBA3E0FAA37D
:10386A00E0F912543790006DEBF0A3EAF0A3E9F007
:05387A00900655E4F08A
:07387F0090000B120D032263
:107ABE0090FFFF120D03EFF0850883850982E0FF2A
:107ACE00EF75F009A4245FF582E43400F583E0FF3E
:0D7ADE00EF54FDFFEFF0900001120D0322A8
:0689F7007F00127ABE228F
:048ACB001289F722F3
:048ACF001289F722EF
:10682C0090FFFF120D03EFF090FFFF120D037401A8
:10683C00F0850883850982A3A3E0FCA3E0FDA3E017
:10684C00FEA3E0FF90FFFC120D03120C66127C44B9
:10685C0090FFFC120D03120C66900009120D27E03C
:0B686C00FF124281900005120D032274
:1079A90090FFFC120D03120C66850883850982E09D
:1079B900FCA3E0FDA3E0FEA3E0FF90FFFC120D0392
:0F79C900120C667F0012682C900004120D03222E
:0669570090FFFF120D038A
:10695D001288B8850883850982EFF09022C3E0FF85
:10696D00EF700A9002FAE0FEA3E0FF800F9002FAAA
:10697D00E0FEA3E0FFEEC313FEEF13FFE4FCFD12F8
:0D698D0079A9850883850982E0FF1288DC66
:07699A00900001120D032221
:0669A10090FFFF120D0340
:1069A7001288B8850883850982EFF09022C3E0FF3B
:1069B700EF700A9002FAE0FEA3E0FF800F9002FA60
:1069C700E0FEA3E0FFEEC313FEEF13FFE4FCFD12AE
:0D69D70079A9850883850982E0FF1288DC1C
:0769E400900001120D0322D7
:0669EB0090FFFF120D03F6
:1069F1001288B8850883850982EFF09022C3E0FFF1
:106A0100EF700A9002FAE0FEA3E0FF800F9002FA15
:106A1100E0FEA3E0FFEEC313FEEF13FFE4FCFD1263
:0D6A210079A9850883850982E0FF1288DCD1
:076A2E00900001120D03228C
:1049860090FFFD120D03EBF0A3EAF0A3E9F090FF10
:10499600FF120D03EFF090FFFF120D0390000512BA
:0C49A6000D27E0FFEF6005128A73807996
:1049B2001288B8850883850982EFF090032FE0FF03
:1049C200EF75F003A4242BF582E43400F583E0FBB9
:1049D200A3E0FAA3E0F9C003C002C0018508838501
:1049E2000982A3A3E0FBA3E0FAA3E0F9D082D0837B
:1049F200D0E06B7008E965827003EA6583701F90EE
:104A0200032FE004FFF0EFC3940C400590032FE462
:104A1200F0900072E0FFEF6005900072E4F085080C
:094A220083850982E0FF1288DCA3
:0A4A2B00128104900006120D032210
:106B100090FFFD120D03EBF0A3EAF0A3E9F090FF64
:106B2000FF120D03EFF0900004120D27E0FF90FF1D
:106B3000FF120D03EFF0850883850982A3A3E0FB14
:106B4000A3E0FAA3E0F9850883850982A3E0FF1298
:096B50004986900005120D032294
:105E1D0090FFFF120D03EDF090FFFD120D03EBF05F
:105E2D00A3EAF0A3E9F0900003120D27E0FF90FF25
:105E3D00FF120D03EFF0850883850982A3E0FBA314
:105E4D00E0FAA3E0F9C003C002C00185088385090B
:105E5D0082A3E0FBA3E0FAA3E0F912642FD001D0F6
:0D5E6D0002D003126B10900004120D0322EE
:1077100090FFFF120D03EDF090FFFD120D03EBF053
:10772000A3EAF0A3E9F0900003120D27E0FD85081D
:1077300083850982E0FBA3E0FAA3E0F9125E1D90C5
:067740000004120D0322FB
:0666100090FFFE120D03D5
:106616001288B8850883850982A3EFF090001CE0F4
:10662600FF850883850982EFF0850883850982A3A3
:05663600E0FF1288DC0A
:10663B009000777403F0850883850982E0FD900351
:0C664B0031E0FBA3E0FAA3E0F9127710A5
:07665700900002120D032266
:0F893A0090FFFF120D03EFF0900001120D0322CA
:1087620090FFFF120D03EFF0850883850982E0FF79
:0A87720012893A900001120D032253
:0689FD007F0012876222D8
:0F89490090FFFF120D03EFF0900001120D0322BB
:10877C0090FFFF120D03EFF0850883850982E0FF5F
:0A878C00128949900001120D03222A
:0C8991009000777401F07F0012877C22B8
:1086450090FFFF120D03EFF0850883850982E0FF97
:0F865500EF7005900072E4F0900001120D032207
:1087960090FFFF120D03EFF0850883850982E0FF45
:0A87A600128645900001120D032217
:038B6A007F002267
:0989DA0090064A7401F07F0022AE
:0675FC0090FFFF120D03D9
:107602001289DA850883850982EFF0128B6AAD0749
:10761200850883850982E0FF1274E4850883850961
:0B76220082EFF0850883850982E0FFFD
:07762D00900001120D032281
:1016FE0090FFFF120D03EFF0850883850982E0FF4E
:10170E00900657EFF090229FE0FFEF649160030286
:10171E001910850883850982E0FFEF120CA3176963
:10172E0000177E0117930217A80317BD0417D205E1
:10173E0017E70617FC07181108182609183B0A1890
:10174E00500B18650C187A0D188F0E18A40F18B9B7
:10175E001018CE1118E312000018F89022A0749FF2
:10176E00F09022A174FFF09022A2746FF0021AF48E
:10177E009022A07496F09022A174F8F09022A27498
:10178E006FF0021AF49022A07492F09022A174F8D5
:10179E00F09022A2746FF0021AF49022A07490F0CE
:1017AE009022A174F0F09022A2746FF0021AF490BD
:1017BE0022A0741CF09022A174F9F09022A2746FF2
:1017CE00F0021AF49022A0741AF09022A174FFF085
:1017DE009022A2746FF0021AF49022A0741BF09063
:1017EE0022A174E6F09022A2746FF0021AF49022F5
:1017FE00A07418F09022A174EEF09022A2746FF0F3
:10180E00021AF49022A07418F09022A174E7F090BE
:10181E0022A2746FF0021AF49022A07417F0902294
:10182E00A174E5F09022A2746FF0021AF49022A037
:10183E007416F09022A174E5F09022A2746FF0025B
:10184E001AF49022A07413F09022A174E4F0902266
:10185E00A2746FF0021AF49022A07412F09022A1DA
:10186E0074E7F09022A2746FF0021AF49022A07422
:10187E0012F09022A174E1F09022A2746FF0021A7D
:10188E00F49022A07411F09022A174E2F09022A2A2
:10189E00746EF0021AF49022A07411F09022A174CA
:1018AE00E1F09022A2746DF0021AF49022A0749FBF
:1018BE00F09022A174FFF09022A2741CF0021AF490
:1018CE009022A07418F09022A174E7F09022A274D6
:1018DE001CF0021AF49022A07413F09022A174E46A
:1018EE00F09022A27418F0021AF49022A0749FF0C5
:1018FE009022A174FFF09022A2746FF0021AF402EB
:10190E001AF4850883850982E0FFEF120CA319599A
:10191E0000196E0119830219980319AD0419C20535
:10192E0019D70619EC071A01081A16091A2B0A1AE2
:10193E00400B1A550C1A6A0D1A7E0E1A920F1AA621
:10194E00101ABA111ACE1200001AE29022A0749F39
:10195E00F09022A174FFF09022A2746FF0021AF49C
:10196E009022A0749FF09022A174FFF09022A27496
:10197E006FF0021AF49022A0749FF09022A174FFCF
:10198E00F09022A2746FF0021AF49022A0749FF0CD
:10199E009022A174F5F09022A2746FF0021AF490C6
:1019AE0022A0749DF09022A174F0F09022A2746F88
:1019BE00F0021AF49022A0749FF09022A174EDF020
:1019CE009022A2746FF0021AF49022A07495F090F7
:1019DE0022A174EDF09022A2746FF0021AF49022FC
:1019EE00A0741FF09022A174F3F09022A2746FF0F5
:1019FE00021AF49022A0741FF09022A174ECF090C1
:101A0E0022A2746FF0021AF49022A0741EF090229B
:101A1E00A174EAF09022A2746FF0021AF49022A040
:101A2E00741CF09022A174E9F09022A2746FF0025F
:101A3E001AF49022A0741EF09022A174E3F090226A
:101A4E00A2746FF0021AF49022A07418F09022A1E2
:101A5E0074E3F09022A2746FF0021AF49022A07434
:101A6E0018F09022A174E2F09022A2746FF08076AA
:101A7E009022A07413F09022A174E2F09022A2742E
:101A8E006FF080629022A07412F09022A174E2F0A6
:101A9E009022A2746EF0804E9022A07411F09022CB
:101AAE00A174E2F09022A2746DF0803A9022A0749C
:101ABE009FF09022A174FFF09022A2741CF0802659
:101ACE009022A07418F09022A174E7F09022A274D4
:101ADE001CF080129022A0749FF09022A174FFF04F
:0D1AEE009022A2746FF0900001120D0322EF
:067E940090FFFE120D0339
:107E9A00126CC1850883850982EEF0A3EFF085088C
:097EAA0083850982E0FEA3E0FFDC
:077EB300900002120D0322F2
:106B590090FFFE120D03EEF0A3EFF085088385097F
:106B690082E0FEA3E0FF9002F4EEF0A3EFF08508C7
:106B790083850982E0FEA3E0FF90215AEFF08508A2
:106B890083850982E0FEA3E0FFEEFF7E0090215B92
:096B9900EFF0900002120D03223E
:106BA20090FFFE120D03EEF0A3EFF0850883850936
:106BB20082E0FEA3E0FF900329EEF0A3EFF0850848
:106BC20083850982E0FEA3E0FF902158EFF085085B
:106BD20083850982E0FEA3E0FFEEFF7E009021594B
:096BE200EFF0900002120D0322F5
:0E00460090FFFF120D03EFF090FFF8120D0374
:10005400900008120D27E0FFEFD3941A4008900691
:100064003C741AF08023900008120D27E0FFEFC3C0
:10007400940B500890063C740BF0800D900008120D
:100084000D27E0FF90063CEFF090229FE0FFEF6425
:0600940091600302041656
:10009A00900008120D27E0FFEF120CA300DA0B0004
:1000AA00FE0C01220D01460E01690F018D1001B1EE
:1000BA001101D51201F813021C140240150264162C
:1000CA0002871702AB1802CE1902F11A00000312B6
:1000DA00900007120D277402F0900005120D277484
:1000EA0006F0900006120D277440F090228B7422BD
:1000FA00F0020333900007120D277402F0900005F6
:10010A00120D27740CF0900006120D277480F090DF
:10011A00228B7422F0020333900007120D27740217
:10012A00F0900005120D277412F0900006120D27A8
:10013A0074C0F090228B7422F002033390000712ED
:10014A000D277402F0900005120D277419F0900023
:10015A0006120D27E4F090228B7422F002033390EA
:10016A000007120D277403F0900005120D2774BBC7
:10017A00F0900006120D277440F090228B7422F042
:10018A00020333900007120D277403F09000051242
:10019A000D2774C1F0900006120D277480F090228A
:1001AA008B7422F0020333900007120D277403F0B8
:1001BA00900005120D2774C7F0900006120D2774DF
:1001CA00C0F090228B7422F0020333900007120DC4
:1001DA00277402F0900005120D277432F090000681
:1001EA00120D27E4F090228B7422F0020333900060
:1001FA0007120D277402F0900005120D277438F0CB
:10020A00900006120D277440F090228B7422F0029F
:10021A000333900007120D277402F0900005120DA7
:10022A0027743EF0900006120D277480F090228BFE
:10023A007422F0020333900007120D277402F09023
:10024A000005120D277444F0900006120D2774C0A1
:10025A00F090228B7422F0020333900007120D27CC
:10026A007402F0900005120D27744BF090000612EC
:10027A000D27E4F090228B7422F0020333900007DA
:10028A00120D277403F0900005120D2774EDF090FB
:10029A000006120D277440F090228B7422F002039C
:1002AA0033900007120D277403F0900005120D27F2
:1002BA0074F3F0900006120D277480F090228B746C
:1002CA0022F08065900007120D277403F090000554
:1002DA00120D2774F9F0900006120D2774C0F090E1
:1002EA00228B7422F08042900007120D277403F0CB
:1002FA00900005120D27E4F0900006120D27E4F095
:10030A0090228B742BF08021900007120D27740223
:10031A00F0900005120D277438F0900006120D2790
:10032A007440F090228B7422F0900007120D27E09F
:10033A00FF902280EFF0900005120D27E0FF902237
:10034A0086EFF0900006120D27E0FF902287EFF06B
:10035A00850883850982A3A3E4F0A3E4F0850883D2
:10036A00850982A3A3E475F0641209F290228974C4
:10037A00ECF0850883850982E4F0A3E4F08508831C
:10038A00850982A3A3E0FEA3E0FF8508838509828D
:10039A00E0FCA3E0FDC3ED9FEC9E500F850883852A
:1003AA000982E475F0011209F280D290228974EC74
:1003BA00F0900004120D27E4F0850883850982E491
:1003CA00F0A3E4F0850883850982E0FEA3E0FFC379
:1003DA00EE9410502390228AE0FFEF30E60B900053
:1003EA0004120D277401F0800F850883850982E4C1
:1003FA0075F0011209F280CC900004120D27E0FF7B
:0C040A00EF70030203670208140203678E
:10041600902204E4F090220574FFF0902206E4F0A6
:1004260090220774FFF0900008120D27E0FFEF12EC
:100436000CA3046C0B04930C04BA0D04E10E05071F
:100446000F052E10055511057C1205A21305C914BA
:1004560005F015061716063D17066418068A1906CE
:10046600B01A000006D4900005120D277406F0900D
:100476000006120D277440F0902280E0FFEF543002
:10048600FFEF4402FF902280EFF00206F89000058D
:10049600120D27740CF0900006120D277480F09050
:1004A6002280E0FFEF5430FFEF4402FF902280EFFE
:1004B600F00206F8900005120D277412F09000065F
:1004C600120D2774C0F0902280E0FFEF5430FFEF4A
:1004D6004402FF902280EFF00206F8900005120D0C
:1004E600277419F0900006120D27E4F0902280E0A0
:1004F600FFEF5430FFEF4402FF902280EFF0020638
:10050600F8900005120D2774BBF0900006120D2717
:100516007440F0902280E0FFEF5430FFEF4403FF79
:10052600902280EFF00206F8900005120D2774C1A4
:10053600F0900006120D277480F0902280E0FFEF05
:100546005430FFEF4403FF902280EFF00206F8904C
:100556000005120D2774C7F0900006120D2774C00F
:10056600F0902280E0FFEF5430FFEF4403FF90222B
:1005760080EFF00206F8900005120D277432F09015
:100586000006120D27E4F0902280E0FFEF5430FFC2
:10059600EF4402FF902280EFF00206F89000051269
:1005A6000D277438F0900006120D277440F0902243
:1005B60080E0FFEF5430FFEF4402FF902280EFF01F
:1005C6000206F8900005120D27743EF09000061200
:1005D6000D277480F0902280E0FFEF5430FFEF4447
:1005E60002FF902280EFF00206F8900005120D2718
:1005F6007444F0900006120D2774C0F0902280E03B
:10060600FFEF5430FFEF4402FF902280EFF0020626
:10061600F8900005120D27744BF0900006120D2776
:10062600E4F0902280E0FFEF5430FFEF4402FF90A9
:100636002280EFF00206F8900005120D2774EDF007
:10064600900006120D277440F0902280E0FFEF54D0
:1006560030FFEF4403FF902280EFF00206F890008F
:1006660005120D2774F3F0900006120D277480F022
:10067600902280E0FFEF5430FFEF4403FF9022808A
:10068600EFF0806E900005120D2774F9F0900006C9
:10069600120D2774C0F0902280E0FFEF5430FFEF78
:1006A6004403FF902280EFF08048900005120D274A
:1006B600E4F0900006120D27E4F0902280E0FFEFB0
:1006C6005430FFEF4403FF902280EFF08024900027
:1006D60005120D277438F0900006120D277440F0AD
:1006E600902280E0FFEF5430FFEF4402FF9022801B
:1006F600EFF0900008120D27E0FFEF120CA3070B96
:100706001A0000071390228B743BF0800690228B10
:100716007432F0902281E0FFEF5401FF902281EFC6
:10072600F0900005120D27E0FF902286EFF0900072
:1007360006120D27E0FF902287EFF08508838509D2
:1007460082A3A3E4F0A3E4F0850883850982A3A32A
:10075600E475F0641209F290228974EFF08508833B
:10076600850982E4F0A3E4F0850883850982A3A3C2
:10077600E0FEA3E0FF850883850982E0FCA3E0FD97
:10078600C3ED9FEC9E500F850883850982E475F0C2
:10079600011209F280D290228974EFF090000412BF
:1007A6000D27E4F0850883850982E4F0A3E4F0854B
:1007B6000883850982E0FEA3E0FFC3EE9410502370
:1007C60090228AE0FFEF30E60B900004120D2774AA
:1007D60001F0800F850883850982E475F00112090E
:1007E600F280CC900004120D27E0FFEF70030207A1
:1007F6004E800302074E90220474F7F0902205748F
:0E080600FFF090220674FFF090220774FFF0BE
:07081400900009120D032200
:1071600090FFFF120D03EFF0850883850982E0FF91
:10717000EF601890220DE0FFEF54CFFFEFF0902268
:107180000DE0FFEF4410FFEFF0800B90220DE0FFC9
:0D719000EF54CFFFEFF0900001120D03222D
:106C340090FFFF120D03EFF0850883850982E0FFC2
:106C4400EF602390220DE0FFEF543FFFEFF090221E
:106C54000DE0FFEF4440FFEFF0902279E0FFEF54A6
:106C64000FFFEFF0800B90220DE0FFEF543FFFEF9A
:086C7400F0900001120D032253
:104A350090FFFE120D03ECF0A3EDF090FFFE120DBA
:0C4A450003EEF0A3EFF090FFFC120D0355
:104A5100900004120D27E0FEA3E0FF85088385097D
:104A610082EEF0A3EFF0900006120D27E0FEA3E026
:104A7100FF850883850982A3A3EEF0A3EFF08508E3
:104A810083850982E0FEA3E0FFEF4E604B8508833A
:104A9100850982A3A3E0FEA3E0FFEF4E6012850823
:104AA10083850982A3A374FF75F0FF1209F280DDEB
:104AB10085088385098274FF75F0FF1209F2900061
:104AC10006120D27E0FEA3E0FF850883850982A376
:084AD100A3EEF0A3EFF080A6B4
:074AD900900008120D0322FA
:060DE20090FFFC120D035E
:0B0DE8001288B8850883850982EFF0AF
:100DF30090229FE0FFEF64916003020FD7902213CC
:100E0300747FF090222374FFF090222574E1F09018
:100E1300222874A2F090222A7469F090222B74A2E3
:100E2300F090223174D7F090223274D7F0902233AD
:100E330074EFF090223A74F7F090223B7477F090BD
:100E4300223C7488F090223E743FF090226274FF3B
:100E5300F090226DE4F090226FE4F090227374DF3F
:100E6300F0902279749EF0902289746CF090228A1B
:100E73007401F090228B7422F090228C7480F09095
:100E8300228D74A8F090228E745AF090228F744FA2
:100E9300F09022907412F09022917450F09022926C
:100EA3007422F09022937428F090229474E8F090C6
:100EB3002295744BF090229974F8F090229B74045D
:100EC300F090229C748AF090229D7462F090229E8E
:100ED30074E9F09022A0749FF09022A174FFF09027
:100EE30022A2746FF09022A47412F09022A774349B
:100EF300F09022AB7430F09022CC74BFF090220CAF
:100F030074FDF090220274FFF090220374FFF090BE
:100F1300220474FFF090220574FFF090220674FF00
:100F2300F090220774FFF09022017484F0902298CD
:100F33007403F09022B5746CF09022B074C5F07C09
:100F43004E7D207E007F01124A359022B074C9F095
:100F5300A2E8E433FF900003120D27EFF0C2E890FC
:100F6300227774F1F0902200E0FFEF547FFFEFF05F
:100F7300902200E0FFEF54BFFFEFF090227EE0FFEE
:100F8300EF540FFF850883850982A3EFF08508835B
:100F9300850982A3E0FFEF640F60E0902278E0FF11
:100FA300850883850982A3A3EFF05391EF85088316
:100FB300850982A3E0FFEFB40EC1800280BD9022B9
:100FC3007774FEF0900003120D27E0FFEF24FF92E9
:100FD300E802120590220C74FDF090224074C0F0D8
:100FE300902213747FF090221D74FFF090222074DE
:100FF300C2F09022217481F090222374FFF090229A
:101003002574DEF090222674D9F09022277483F0A1
:10101300902228748BF090222A74E0F090222B7493
:1010230020F090222F74CEF090223074D8F09022CA
:101033003174E7F090223274E7F090223374EFF0CA
:1010430090223A74F6F090223B7477F090223C742D
:1010530088F090223E743FF0902289746FF09022C2
:101063008A740AF090228B7432F090228D74E8F027
:1010730090228E74FAF090228F747FF090229074F5
:1010830012F09022917470F09022927412F09022D8
:1010930093742AF090229474F8F0902295744FF090
:1010A300902298E4F090229B7401F090229C749F0C
:1010B300F090229D7478F090229E74E0F09022A02C
:1010C300749FF09022A174FFF09022A2746FF090AD
:1010D30022A47412F09022A77411F09022AB743002
:1010E300F090220474F7F090220574FFF090220030
:1010F300E0FFEF547FFFEFF090220274FFF09022A5
:101103000374FFF090220474F7F090220574FFF04B
:1011130090220674FFF090220774FFF0902201746E
:1011230084F09022C074C2F090220474F7F09022ED
:101133000574FFF09022B5741CF09022977406F0AA
:10114300902298E4F09022B074C5F09022B0E0FFB2
:10115300EF20E2F79022C074FFF09022B57408F0FC
:101163009022B074C9F0902205E4F0A2E8E433FFC2
:10117300900003120D27EFF0C2E890227774F1F08C
:10118300902200E0FFEF547FFFEFF0902200E0FF9A
:10119300EF54BFFFEFF090227EE0FFEF540FFF8587
:1011A3000883850982A3EFF0850883850982A3E07C
:1011B300FFEF640F60E0902278E0FF8508838509E4
:1011C30082A3A3EFF05391EF850883850982A3E0FF
:1011D300FFEFB40EC1800280BD90227774FEF090C1
:1011E300226274FFF090226DE4F090226FE4F0909D
:1011F30022C4747BF0900003120D27E0FFEF24FF5D
:1012030092E89021917416F0902082E4F09020816E
:10121300E4F0902002E4F0902001E4F09022C0E09A
:10122300FFEF4401FFEFF09022C0E0FFEF54EFFF28
:10123300EFF07F00126C347F0012716090063CE087
:10124300FF120046900329E0FEA3E0FF126BA212F7
:101253007E94126B59900657E0FF1216FE900077AA
:0A1263007403F01275FCC2F8D2E823
:0B126D00850883850982E0FF1288DC01
:0C1278007F00128796900004120D0322E4
:067F9E0090FFFF120D032D
:107FA4001288B8850883850982EFF0B29585088325
:087FB400850982E0FF1288DC60
:077FBC00900001120D0322E9
:048AD300127F9E224E
:048AD700128AD3220A
:048ADB00128AD72202
:048ADF00128ADB22FA
:048AE300128ADF22F2
:104F230090FFFE120D03ECF0A3EDF090FFFD120DC8
:0F4F330003EBF0A3EAF0A3E9F090FFFD120D03EA
:104F4200900003120D27E0FBA3E0FAA3E0F9850825
:104F520083850982EBF0A3EAF0A3E9F09000061240
:104F62000D27E0FEA3E0FF850883850982E0FBA30D
:104F7200E0FAA3E0F9EF120957900006120D27E0BC
:104F8200FEA3E0FFEEFF7E00850883850982E0FB39
:104F9200A3E0FAA3E0F9758201758300EF120969B3
:0B4FA200900006120D27E0FEA3E0FFC8
:074FAD00900008120D032221
:105D5F0090FFFF120D03EDF090FFFD120D03EBF01E
:0C5D6F00A3EAF0A3E9F090FFFD120D0381
:105D7B00900003120D27E0FBA3E0FAA3E0F98508DE
:105D8B0083850982EBF0A3EAF0A3E9F090000612F9
:105D9B000D27E0FF850883850982E0FBA3E0FAA3CA
:0E5DAB00E0F9EF120957900006120D27E0FFF5
:075DB900900007120D032208
:104FB40090FFFE120D03ECF0A3EDF090FFFD120D37
:0F4FC40003EBF0A3EAF0A3E9F090FFFD120D0359
:104FD300900003120D27E0FBA3E0FAA3E0F9850894
:104FE30083850982EBF0A3EAF0A3E9F090000612AF
:104FF3000D27E0FEA3E0FF850883850982E0FBA37C
:10500300E0FAA3E0F9758201758300EF1209699054
:105013000006120D27E0FEA3E0FFEEFF7E008508E9
:1050230083850982E0FBA3E0FAA3E0F9EF120957B5
:0B503300900006120D27E0FEA3E0FF36
:07503E00900008120D03228F
:1071220090FFFF120D03EDF090FFFD120D03EBF047
:10713200A3EAF0A3E9F0900003120D27E0FD850811
:1071420083850982E0FBA3E0FAA3E0F9125CFE90DA
:0E7152000003120D27E0FF900004120D03222F
:106BEB0090FFFD120D03EBF0A3EAF0A3E9F090FF89
:046BFB00FD120D0377
:106BFF00900003120D27E0FBA3E0FAA3E0F985084C
:106C0F0083850982EBF0A3EAF0A3E9F08508838579
:0E6C1F000982E0FBA3E0FAA3E0F9120911FFDD
:076C2D00900006120D032286
:10809C0090FFFD120D03EBF0A3EAF0A3E9F08508C5
:1080AC0083850982E0FBA3E0FAA3E0F990000312B8
:0380BC000D03228F
:1036370090FFFF120D03EDF090FFFD120D03EBF06D
:0C364700A3EAF0A3E9F090FFFB120D03D2
:0B3653001288B8850883850982EFF01B
:10365E00900005120D27E0FBA3E0FAA3E0F912801B
:10366E009C850883850982A3EBF0A3EAF0A3E9F019
:0A367E0090064AE0FFEF6401601FB0
:10368800900004120D277401F0850883850982E0F3
:0F369800FF1288DC900004120D27E0FF02375D5F
:1036A700900005120D27E0FBA3E0FAA3E0F99000D4
:1036B70068EBF0A3EAF0A3E9F0850883850982A304
:1036C700E0FBA3E0FAA3E0F9126BEB7E00EF24FF27
:1036D700FFEE34FFFE900005120D27E0FBA3E0FA92
:1036E700A3E0F9C003C002C0017B017A237900A8D7
:1036F70001AC02AD03D001D002D0031208EB902336
:1037070003E0FF902192EFF01267E0EF701590064B
:103717004A7403F09002FA740CF0A3749BF01281C0
:10372700F2802690064A7402F0900068E0FBA3E05E
:10373700FAA3E0F9126D067C007DF012098B900266
:09374700FAEEF0A3EFF01281D0BC
:0B375000850883850982E0FF1288DCF9
:02375B007F00ED
:07375D00900009120D032288
:107CEB0090FFFD120D03EBF0A3EAF0A3E9F07D0189
:107CFB00850883850982E0FBA3E0FAA3E0F912363D
:087D0B0037900003120D032262
:10719D0090FFFD120D03EBF0A3EAF0A3E9F090FFD1
:0471AD00FF120D03BD
:1071B100850883850982A3E0FBA3E0FAA3E0F91225
:1071C1007CEB850883850982EFF085088385098238
:0271D100E0FFDD
:0771D300900004120D0322DD
:067EBA0090FFFE120D0313
:107EC000128AC7850883850982EEF0A3EFF0850842
:097ED00083850982E0FEA3E0FFB6
:077ED900900002120D0322CC
:107BC40090FFFD120D03EBF0A3EAF0A3E9F08508A2
:107BD40083850982E0FBA3E0FAA3E0F9E9242AF90A
:0B7BE400EA3400FA900003120D0322A7
:1080BF0090FFFD120D03EBF0A3EAF0A3E9F08508A2
:1080CF0083850982E0FBA3E0FAA3E0F99000031295
:0380DF000D03226C
:1023760090FFFF120D03EDF090FFFD120D03EBF041
:0C238600A3EAF0A3E9F090FFF2120D03AF
:1023920090000E120D27E0FBA3E0FAA3E0F91280F1
:1023A200BF900006120D27EBF0A3EAF0A3E9F0902C
:1023B200000E120D27E0FBA3E0FAA3E0F9127BC4A2
:0E23C200900009120D27EBF0A3EAF0A3E9F05A
:1023D0001288B890000C120D27EFF0900077E0FF04
:0523E000EF6403601F23
:1023E50090000D120D277401F090000C120D27E0DE
:0F23F500FF1288DC90000D120D27E0FF0225B8C3
:102404009000777405F090000E120D27E0FBA3E016
:10241400FAA3E0F9900331EBF0A3EAF0A3E9F0901A
:102424000330E004FDF0900006120D27E0FBA3E06A
:10243400FAA3E0F9E92403F9EA3400FA125D5F90A3
:0A244400000C120D27E0FF1288DCE7
:10244E00900011120D27E0FD900006120D27E0FB03
:10245E00A3E0FAA3E0F9125D5F900006120D27E0EB
:10246E00FBA3E0FAA3E0F9E92401F9EA3400FA90BB
:10247E000003120D27EBF0A3EAF0A3E9F09000039E
:10248E00120D27E0FBA3E0FAA3E0F91256047C003C
:10249E00EF5420FD900003120D27E0FBA3E0FAA3FA
:1024AE00E0F9124F23900006120D27E0FBA3E0FA8D
:1024BE00A3E0F9E92401F9EA3400FA8508838509D5
:1024CE0082EBF0A3EAF0A3E9F0850883850982E0A8
:1024DE00FBA3E0FAA3E0F9125604EE4488FCEF44A5
:1024EE0041FD850883850982E0FBA3E0FAA3E0F9AC
:1024FE00124F23127EBAAC06AD07900006120D27BE
:10250E00E0FBA3E0FAA3E0F9E92408F9EA3400FAC3
:10251E00124F237D3F900006120D27E0FBA3E0FA39
:10252E00A3E0F9E9240AF9EA3400FA125D5F7D00AE
:10253E00900009120D27E0FBA3E0FAA3E0F9E924CD
:10254E0004F9EA3400FA1271227D00900009120D8E
:10255E0027E0FBA3E0FAA3E0F9E92401F9EA34004D
:10256E00FA125CFE7D00900009120D27E0FBA3E03D
:10257E00FAA3E0F9E92402F9EA3400FA125CFE7CCF
:10258E00007D00900009120D27E0FBA3E0FAA3E006
:10259E00F9E92405F9EA3400FA124FB4900331E058
:0A25AE00FBA3E0FAA3E0F912719D0F
:0725B800900012120D032236
:1066F90090FFFF120D03EDF090FFFD120D03EBF07B
:0C670900A3EAF0A3E9F090FFFF120D03DB
:10671500900004120D27E0FD850883850982A3E01A
:10672500FBA3E0FAA3E0F9122376850883850982A5
:0A673500EFF0850883850982E0FF7C
:07673F00900005120D03227A
:1045080090FFFD120D03EBF0A3EAF0A3E9F090FF92
:10451800FE120D03ECF0A3EDF090FFFF120D03EF78
:07452800F090FFFD120D03EE
:10452F00900006120D27E0FBA3E0FAA3E0F912803A
:10453F0056850883850982EBF0A3EAF0A3E9F09092
:10454F000003120D27E0FD850883850982E0FBA398
:10455F00E0FAA3E0F9E9240BF9EA3400FA125D5FFF
:10456F00900004120D27E0FCA3E0FD850883850968
:10457F0082E0FBA3E0FAA3E0F9E92406F9EA3400AC
:10458F00FA124F237C007D12850883850982E0FB98
:10459F00A3E0FAA3E0F9E92404F9EA3400FA124F90
:1045AF0023900009120D27E0FFEF240DFD90000668
:0E45BF00120D27E0FBA3E0FAA3E0F91266F963
:0745CD0090000A120D032209
:1054AB0090FFFD120D03EBF0A3EAF0A3E9F090FFE0
:1054BB00FE120D03ECF0A3EDF090FFFF120D03EFC6
:0754CB00F090FFFF120D033A
:1054D200900007120D27E0FF90FFFF120D03EFF07F
:1054E200900005120D27E0FBA3E0FAA3E0F990007B
:1054F20003120D27E0FCA3E0FD850883850982A342
:10550200A3E0FF124508850883850982EFF085082C
:0655120083850982E0FF21
:07551800900008120D0322B0
:1059650090FFFE120D03ECF0A3EDF090FFFD120D7C
:0F59750003EBF0A3EAF0A3E9F090FFFD120D039E
:10598400900003120D27E0FBA3E0FAA3E0F91280D4
:1059940056850883850982EBF0A3EAF0A3E9F09029
:1059A4000006120D27E0FCA3E0FD8508838509822B
:1059B400E0FBA3E0FAA3E0F9E92408F9EA3400FAE9
:0359C400124F235C
:0759C700900008120D0322FD
:1073830090FFFE120D03ECF0A3EDF090FFFD120D44
:1073930003EBF0A3EAF0A3E9F0900003120D27E05A
:1073A300FCA3E0FD850883850982E0FBA3E0FAA343
:0C73B300E0F9125965900005120D03224C
:1088660090FFFD120D03EBF0A3EAF0A3E9F09000F0
:0588760003120D0322B6
:107EE00090FFFD120D03EBF0A3EAF0A3E9F0850883
:107EF00083850982E0FBA3E0FAA3E0F9128866908B
:067F00000003120D032234
:1071DA0090FFFD120D03EBF0A3EAF0A3E9F090FF94
:0471EA00FF120D0380
:1071EE00850883850982A3E0FBA3E0FAA3E0F912E8
:1071FE006144850883850982EFF0850883850982BD
:02720E00E0FF9F
:07721000900004120D03229F
:1055930090FFFD120D03EBF0A3EAF0A3E9F090FFF7
:0455A300FD120D03E5
:1055A700900003120D27E0FBA3E0FAA3E0F98508BA
:1055B70083850982EBF0A3EAF0A3E9F085088385E8
:1055C7000982E0FBA3E0FAA3E0F975820175830085
:1055D70012092AFFEFFD7C00850883850982E0FB1D
:1055E700A3E0FAA3E0F9120911FF7E00EF7F00FEA6
:0655F700EE4CFEEF4DFF3B
:0755FD00900006120D0322CD
:10623D0090FFFD120D03EBF0A3EAF0A3E9F090FF40
:04624D00FD120D032E
:10625100900003120D27E0FBA3E0FAA3E0F9127B03
:1062610043850883850982EBF0A3EAF0A3E9F08571
:106271000883850982E0FBA3E0FAA3E0F9E924029F
:08628100F9EA3400FA1255930A
:07628900900006120D032234
:106D8E0090FFFD120D03EBF0A3EAF0A3E9F090FFE4
:046D9E00FE120D03D1
:106DA200850883850982A3A3E0FBA3E0FAA3E0F9A7
:106DB20012623D850883850982EEF0A3EFF0850813
:096DC20083850982E0FEA3E0FFD5
:076DCB00900005120D0322E8
:1068770090FFFD120D03EBF0A3EAF0A3E9F090FF00
:04688700FD120D03EE
:10688B00900003120D27E0FBA3E0FAA3E0F9127BC3
:10689B0043850883850982EBF0A3EAF0A3E9F08531
:1068AB000883850982E0FBA3E0FAA3E0F912559374
:0768BB00900006120D0322FC
:106DD20090FFFD120D03EBF0A3EAF0A3E9F090FFA0
:046DE200FE120D038D
:106DE600850883850982A3A3E0FBA3E0FAA3E0F963
:106DF600126877850883850982EEF0A3EFF085088F
:096E060083850982E0FEA3E0FF90
:076E0F00900005120D0322A3
:1062900090FFFD120D03EBF0A3EAF0A3E9F090FFED
:0462A000FD120D03DB
:1062A400900003120D27E0FBA3E0FAA3E0F9127BB0
:1062B40043850883850982EBF0A3EAF0A3E9F0851E
:1062C4000883850982E0FBA3E0FAA3E0F9E924044A
:0862D400F9EA3400FA126A3500
:0762DC00900006120D0322E1
:1072170090FFFD120D03EBF0A3EAF0A3E9F090FF56
:04722700FF120D0342
:10722B00850883850982A3E0FBA3E0FAA3E0F912AA
:10723B006290850883850982EFF085088385098232
:02724B00E0FF62
:07724D00900004120D032262
:0634E40090FFF6120D033B
:1034EA001288B8900009120D27EFF090032FE0FF21
:1034FA0090032DE0FEEEB5071B900072E0FFEF701F
:10350A00139002F3E4F0900009120D27E0FF1288ED
:0F351A00DC023630900009120D27E0FF1288DC2A
:1035290090032FE0FFEF75F003A4242BF582E43418
:1035390000F583E0FBA3E0FAA3E0F9900006120D81
:1035490027EBF0A3EAF0A3E9F0900006120D27E0BB
:10355900FBA3E0FAA3E0F9127217850883850982B3
:10356900EFF0900006120D27E0FBA3E0FAA3E0F9C3
:10357900126DD2850883850982A3A3EEF0A3EFF02B
:10358900900006120D27E0FBA3E0FAA3E0F9126D03
:103599008E900004120D27EEF0A3EFF090000612B2
:1035A9000D27E0FBA3E0FAA3E0F91271DA8508839D
:1035B900850982A3EFF0900006120D27E0FBA3E036
:1035C900FAA3E0F9127EE0900004120D27E0FCA3B3
:1035D900E0FD900006120D27E0FBA3E0FAA3E0F955
:1035E900127383850883850982E0FF90FFFF120D1E
:1035F90003EFF0900007120D27E0FBA3E0FAA3E028
:10360900F9900003120D27E0FCA3E0FD85088385EE
:103619000982A3A3E0FF1254ABEF7005128AE3807D
:0736290006128A73128104EE
:0736300090000A120D0322B5
:067FC30090FFFF120D0308
:107FC9001288B8850883850982EFF0B296850883FF
:087FD900850982E0FF1288DC3B
:077FE100900001120D0322C4
:048AE700127FC32215
:048AEB00128AE722E2
:048AEF00128AEB22DA
:048AF300128AEF22D2
:048AF700128AF322CA
:0E48260090FFFF120D03EFF090FFFD120D0347
:08483400850883850982E4F088
:10483C001288B8850883850982A3EFF0900641E0C1
:05484C00FFEFB40A2398
:10485100850883850982A3A37404F08508838509EB
:1048610082A3E0FF1288DC850883850982A3A3E087
:03487100FF805C69
:0C487400850883850982A3E0FF1288DC20
:104880001288B8850883850982A3EFF0900013E0B1
:10489000FFEF701C9000137401F0900003120D27BD
:1048A000E0FF900014EFF08508838509827401F021
:0C48B000850883850982A3E0FF1288DCE4
:1048BC00850883850982E0FFEF60071276A37F00ED
:0448CC0080027F05E2
:0748D000900004120D032209
:0E79470090FFFF120D03EFF090FFFF120D03F3
:10795500850883850982A3E0FF124826850883856B
:0C7965000982EFF0850883850982E0FFAD
:07797100900002120D032239
:107CC20090FFFF120D03EDF090FFFD120D03EBF09C
:107CD200A3EAF0A3E9F0900003120D27E0FFEF24DE
:097CE20007FF900004120D0322BB
:1086640090FFFD120D03EBF0A3EAF0A3E9F090FFF5
:0F867400FF120D03EFF07F00900005120D03229F
:104D670090FFFD120D03EBF0A3EAF0A3E9F090FF2B
:0C4D7700FF120D03EFF090FFFF120D0380
:104D8300850883850982A3E0FFEF120CA34D9700EA
:104D930000004DBC900005120D27E0FD85088385BA
:104DA3000982A3A3E0FBA3E0FAA3E0F9127CC28586
:104DB3000883850982EFF08033900005120D27E008
:104DC300FF90FFFF120D03EFF0900003120D27E099
:104DD300FBA3E0FAA3E0F9850883850982A3A3E096
:104DE300FF128664850883850982EFF08508838531
:044DF3000982E0FF52
:074DF700900006120D0322DB
:103AAF0090FFFD120D03EBF0A3EAF0A3E9F090FFF6
:103ABF00FF120D03EFF090FFFE120D039002DCE0FA
:093ACF00FFEF60057F05023BB525
:103AD8001288B8850883850982EFF08508838509EF
:103AE80082A3A3E0FF126482900070EFF090007050
:083AF800E0FFEFD3940C402124
:103B0000850883850982A37402F08508838509826C
:103B1000E0FF1288DC850883850982A3E0FF023B71
:013B2000B5EF
:103B21009002F2E4F0900003120D27E0FBA3E0FA0B
:103B3100A3E0F9900001EBF0A3EAF0A3E9F0900211
:103B4100DC7402F0850883850982A3A3E0FF90035A
:103B510069EFF0900075E4F0900006120D27E0FF88
:103B610090FFFF120D03EFF0900004120D27E0FB10
:103B7100A3E0FAA3E0F9900003120D27E0FF124D34
:103B810067900070E0FEEF2EFF90032EEFF08508A6
:093B910083850982E0FF1288DC43
:103B9A00850883850982A3A3E0FF127947EF7004A1
:103BAA007F0080079002DCE4F07F01900007120D8D
:023BBA000322E4
:1060410090FFFF120D03EDF090FFFD120D03EBF039
:0C605100A3EAF0A3E9F090FFFF120D039A
:10605D00900004120D27E0FF90FFFF120D03EFF0EB
:10606D00850883850982A3A3E0FBA3E0FAA3E0F9E9
:10607D007F00123AAF850883850982EFF08508838A
:05608D00850982E0FF1F
:07609200900005120D03222E
:038B6D007F1C2248
:10435F0090FFFD120D03EBF0A3EAF0A3E9F090FF3D
:10436F00FE120D03ECF0A3EDF090FFFF120D03EF23
:07437F00F090FFFD120D0399
:10438600900006120D27E0FBA3E0FAA3E0F9127BEA
:1043960043850883850982EBF0A3EAF0A3E9F012CE
:1043A6008B6D900009120D27E0FEEED39F40047F2F
:1043B600028077900004120D27E0FCA3E0FD85083B
:1043C60083850982E0FBA3E0FAA3E0F9124FB490DB
:1043D6000003120D27E0FD850883850982E0FBA313
:1043E600E0FAA3E0F9E92406F9EA3400FA125CFEE1
:1043F600900009120D27E0FD850883850982E0FB00
:10440600A3E0FAA3E0F9E92404F9EA3400FA125C1D
:10441600FE900009120D27E0FD900006120D27E020
:0A442600FBA3E0FAA3E0F9126041E5
:0744300090000A120D0322A7
:10551F0090FFFD120D03EBF0A3EAF0A3E9F090FF6B
:10552F00FE120D03ECF0A3EDF090FFFF120D03EF51
:07553F00F090FFFF120D03C5
:10554600900007120D27E0FF90FFFF120D03EFF00A
:10555600900005120D27E0FBA3E0FAA3E0F9900006
:1055660003120D27E0FCA3E0FD850883850982A3CD
:10557600A3E0FF12435F850883850982EFF0850863
:0655860083850982E0FFAD
:07558C00900008120D03223C
:105C390090FFFF120D03EDF090FFFD120D03EBF045
:0C5C4900A3EAF0A3E9F090FFFD120D03A8
:105C5500900003120D27E0FBA3E0FAA3E0F9127B05
:105C650043850883850982EBF0A3EAF0A3E9F09068
:105C75000006120D27E0FD850883850982E0FBA358
:105C8500E0FAA3E0F9E92405F9EA3400FA125CFE2A
:075C9500900007120D03222D
:1077460090FFFF120D03EDF090FFFD120D03EBF01D
:10775600A3EAF0A3E9F0900003120D27E0FD8508E7
:1077660083850982E0FBA3E0FAA3E0F9125C399075
:067776000004120D0322C5
:1059CE0090FFFE120D03ECF0A3EDF090FFFD120D13
:0F59DE0003EBF0A3EAF0A3E9F090FFFD120D0335
:1059ED00900003120D27E0FBA3E0FAA3E0F9127B70
:1059FD0043850883850982EBF0A3EAF0A3E9F090D3
:105A0D000006120D27E0FCA3E0FD850883850982C1
:105A1D00E0FBA3E0FAA3E0F9E92402F9EA3400FA85
:035A2D00124FB461
:075A3000900008120D032293
:1073BF0090FFFE120D03ECF0A3EDF090FFFD120D08
:1073CF0003EBF0A3EAF0A3E9F0900003120D27E01E
:1073DF00FCA3E0FD850883850982E0FBA3E0FAA307
:0C73EF00E0F91259CE900005120D0322A7
:1060EF0090FFFD120D03EBF0A3EAF0A3E9F090FF90
:0460FF00FD120D037E
:10610300900003120D27E0FBA3E0FAA3E0F9127B52
:1061130043850883850982EBF0A3EAF0A3E9F07EC7
:10612300007F077C007D00850883850982E0FBA34F
:0A613300E0FAA3E0F9AD04120D3408
:07613D00900006120D032281
:107F060090FFFD120D03EBF0A3EAF0A3E9F085085C
:107F160083850982E0FBA3E0FAA3E0F91260EF9003
:067F26000003120D03220E
:10887B0090FFFD120D03EBF0A3EAF0A3E9F09000DB
:05888B0003120D0322A1
:1072540090FFFD120D03EBF0A3EAF0A3E9F090FF19
:04726400FF120D0305
:10726800850883850982A3E0FBA3E0FAA3E0F9126D
:10727800887B850883850982EFF0850883850982E4
:02728800E0FF25
:07728A00900004120D032225
:1062E30090FFFD120D03EBF0A3EAF0A3E9F090FF9A
:0462F300FD120D0388
:1062F700900003120D27E0FBA3E0FAA3E0F9128058
:1063070056850883850982EBF0A3EAF0A3E9F085B7
:106317000883850982E0FBA3E0FAA3E0F9E92408F2
:08632700F9EA3400FA125604F1
:07632F00900006120D03228D
:106E160090FFFD120D03EBF0A3EAF0A3E9F090FF5B
:046E2600FE120D0348
:106E2A00850883850982A3A3E0FBA3E0FAA3E0F91E
:106E3A001262E3850883850982EEF0A3EFF08508E4
:096E4A0083850982E0FEA3E0FF4C
:076E5300900005120D03225F
:106E5A0090FFFD120D03EBF0A3EAF0A3E9F090FF17
:046E6A00FE120D0304
:106E6E00850883850982A3A3E0FBA3E0FAA3E0F9DA
:106E7E001261EA850883850982EEF0A3EFF085089A
:096E8E0083850982E0FEA3E0FF08
:076E9700900005120D03221B
:1072910090FFFD120D03EBF0A3EAF0A3E9F090FFDC
:0472A100FF120D03C8
:1072A500850883850982A3E0FBA3E0FAA3E0F91230
:1072B500642F850883850982EFF085088385098217
:0272C500E0FFE8
:0772C700900004120D0322E8
:107A070090FFFD120D03EBF0A3EAF0A3E9F0850860
:107A170083850982E0FBA3E0FAA3E0F912805612FE
:0E7A27006BEBC3EF940DFF900003120D0322D2
:1072CE0090FFFD120D03EBF0A3EAF0A3E9F090FF9F
:0472DE00FF120D038B
:1072E200850883850982A3E0FBA3E0FAA3E0F912F3
:1072F2007A07850883850982EFF0850883850982EC
:02730200E0FFAA
:07730400900004120D0322AA
:062ED10090FFF5120D0355
:102ED7001288B890000A120D27EFF0900649E0FF1C
:102EE700900646E0FEEEB5071B900367E0FFEF7024
:102EF7001390063BE4F090000A120D27E0FF1288BA
:0F2F0700DC02306290000A120D27E0FF1288DC16
:102F1600900649E0FFEF75F003A42405F582E4343A
:102F260003F583E0FBA3E0FAA3E0F9900006120D97
:102F360027EBF0A3EAF0A3E9F0900006120D27E0D4
:102F4600FBA3E0FAA3E0F91272CE85088385098215
:102F5600EFF0FF900644EFF0900006120D27E0FB1D
:102F6600A3E0FAA3E0F9127291850883850982A38A
:102F7600EFF0900006120D27E0FBA3E0FAA3E0F9BC
:102F8600126E5A850883850982A3A3EEF0A3EFF09B
:102F9600900006120D27E0FBA3E0FAA3E0F9126EFB
:102FA60016900004120D27EEF0A3EFF09000061223
:102FB6000D27E0FBA3E0FAA3E0F912725490000992
:102FC600120D27EFF0900006120D27E0FBA3E0FAA2
:102FD600A3E0F9127F06900004120D27E0FCA3E09F
:102FE600FD900006120D27E0FBA3E0FAA3E0F9121C
:102FF60073BF900009120D27E0FD900006120D2701
:10300600E0FBA3E0FAA3E0F9127746850883850979
:1030160082E0FF90FFFF120D03EFF0900649E0FFFC
:10302600EF75F003A42405F582E43403F583E0FB91
:10303600A3E0FAA3E0F9900003120D27E0FCA3E059
:10304600FD850883850982A3A3E0FF12551FEF7053
:0C30560005128AF78006128A731280E2CD
:0730620090000B120D032288
:108890007B017A03793490006DEBF0A3EAF0A3E951
:0488A000F07F002243
:0B89A90090064AE4F01289F77F0022DC
:1088A400900077E0FFEF60037F012290007774016E
:0488B400F07F00222F
:1086DC00900647E0FEA3E0FFEF2401FFEE3400FE1E
:0C86EC00E4FCFD90004F120C667F0022A1
:048AFB0012001E2225
:048AFF00128B522262
:1085270090FFFE120D03EEF0A3EFF0850883850997
:1085370082E0FEA3E0FF1277E6900002120D03220D
:1088FC007E007F00128527128AFF128AFB7F0022DE
:0B89B40090064CE4F090064BE4F0222B
:107D1300900005E4F0900004E4F09006407404F051
:107D2300900071E4F0900653E4F0900643E4F09081
:087D330002FCE4F0A3E4F022DD
:0658900090FFFF120D0362
:10589600850883850982E4F0850883850982E0FF0F
:1058A600EFC394025021850883850982E0FFEF2526
:1058B600E02411F582E43400F583E4F0850883855D
:1058C6000982E004F080D1900641740AF0900074D9
